{
	"_format": "hh-sol-artifact-1",
	"contractName": "FilmountainRegistry",
	"sourceName": "contracts/pool/FilmountainRegistry.sol",
	"abi": [
		{
			"inputs": [
				{
					"internalType": "address",
					"name": "_zc",
					"type": "address"
				}
			],
			"stateMutability": "nonpayable",
			"type": "constructor"
		},
		{
			"anonymous": false,
			"inputs": [
				{
					"indexed": false,
					"internalType": "address",
					"name": "target",
					"type": "address"
				}
			],
			"name": "AddUser",
			"type": "event"
		},
		{
			"anonymous": false,
			"inputs": [
				{
					"indexed": true,
					"internalType": "address",
					"name": "previousOwner",
					"type": "address"
				},
				{
					"indexed": true,
					"internalType": "address",
					"name": "newOwner",
					"type": "address"
				}
			],
			"name": "OwnershipTransferred",
			"type": "event"
		},
		{
			"anonymous": false,
			"inputs": [
				{
					"indexed": false,
					"internalType": "address",
					"name": "traget",
					"type": "address"
				}
			],
			"name": "RemoveUser",
			"type": "event"
		},
		{
			"inputs": [
				{
					"internalType": "address",
					"name": "_target",
					"type": "address"
				}
			],
			"name": "addUser",
			"outputs": [],
			"stateMutability": "nonpayable",
			"type": "function"
		},
		{
			"inputs": [
				{
					"internalType": "address",
					"name": "_target",
					"type": "address"
				}
			],
			"name": "isUser",
			"outputs": [
				{
					"internalType": "bool",
					"name": "",
					"type": "bool"
				}
			],
			"stateMutability": "view",
			"type": "function"
		},
		{
			"inputs": [],
			"name": "owner",
			"outputs": [
				{
					"internalType": "address",
					"name": "",
					"type": "address"
				}
			],
			"stateMutability": "view",
			"type": "function"
		},
		{
			"inputs": [],
			"name": "pool",
			"outputs": [
				{
					"internalType": "address",
					"name": "",
					"type": "address"
				}
			],
			"stateMutability": "view",
			"type": "function"
		},
		{
			"inputs": [
				{
					"internalType": "address",
					"name": "_target",
					"type": "address"
				}
			],
			"name": "removeUser",
			"outputs": [],
			"stateMutability": "nonpayable",
			"type": "function"
		},
		{
			"inputs": [],
			"name": "renounceOwnership",
			"outputs": [],
			"stateMutability": "nonpayable",
			"type": "function"
		},
		{
			"inputs": [
				{
					"internalType": "address",
					"name": "_pool",
					"type": "address"
				}
			],
			"name": "setPool",
			"outputs": [],
			"stateMutability": "nonpayable",
			"type": "function"
		},
		{
			"inputs": [
				{
					"internalType": "address",
					"name": "_vault",
					"type": "address"
				}
			],
			"name": "setVault",
			"outputs": [],
			"stateMutability": "nonpayable",
			"type": "function"
		},
		{
			"inputs": [
				{
					"internalType": "address",
					"name": "_zc",
					"type": "address"
				}
			],
			"name": "setZC",
			"outputs": [],
			"stateMutability": "nonpayable",
			"type": "function"
		},
		{
			"inputs": [
				{
					"internalType": "address",
					"name": "newOwner",
					"type": "address"
				}
			],
			"name": "transferOwnership",
			"outputs": [],
			"stateMutability": "nonpayable",
			"type": "function"
		},
		{
			"inputs": [],
			"name": "userList",
			"outputs": [
				{
					"internalType": "address[]",
					"name": "",
					"type": "address[]"
				}
			],
			"stateMutability": "view",
			"type": "function"
		},
		{
			"inputs": [],
			"name": "vault",
			"outputs": [
				{
					"internalType": "address",
					"name": "",
					"type": "address"
				}
			],
			"stateMutability": "view",
			"type": "function"
		},
		{
			"inputs": [],
			"name": "zc",
			"outputs": [
				{
					"internalType": "address",
					"name": "",
					"type": "address"
				}
			],
			"stateMutability": "view",
			"type": "function"
		}
	],
	"bytecode": "0x608060405234801561001057600080fd5b506040516109dd3803806109dd83398101604081905261002f916100e2565b6100383361005d565b600380546001600160a01b0319166001600160a01b039290921691909117905561010b565b600080546001600160a01b038381166001600160a01b0319831681178455604051919092169283917f8be0079c531659141344cd1fd0a4f28419497f9722a3daafe3b4186f6b6457e09190a35050565b60006001600160a01b0382165b92915050565b6100c9816100ad565b81146100d457600080fd5b50565b80516100ba816100c0565b6000602082840312156100f7576100f7600080fd5b600061010384846100d7565b949350505050565b6108c38061011a6000396000f3fe608060405234801561001057600080fd5b50600436106100af5760003560e01c80630e0f785f146100b457806316f0115b146100d25780634209fff1146100f2578063421b2d8b146101125780634437152a146101275780636817031b1461013a578063715018a61461014d5780638da5cb5b14610155578063985751881461015d578063bd16032214610170578063f2fde38b14610183578063f5309a1d14610196578063fbfa77cf146101a9575b600080fd5b6100bc6101bc565b6040516100c99190610737565b60405180910390f35b6004546100e5906001600160a01b031681565b6040516100c99190610748565b610105610100366004610775565b6101cd565b6040516100c991906107a6565b610125610120366004610775565b6101e0565b005b610125610135366004610775565b61025e565b610125610148366004610775565b6102af565b610125610300565b6100e561033b565b61012561016b366004610775565b61034a565b6003546100e5906001600160a01b031681565b610125610191366004610775565b6103b4565b6101256101a4366004610775565b610415565b6005546100e5906001600160a01b031681565b60606101c86001610466565b905090565b60006101da60018361047a565b92915050565b336101e961033b565b6001600160a01b0316146102185760405162461bcd60e51b815260040161020f906107b4565b60405180910390fd5b61022360018261048f565b507f93e8ef53fa1762269961bdc02811e560fa10787f7f2f9c13f74ddad8221614d2816040516102539190610748565b60405180910390a150565b3361026761033b565b6001600160a01b03161461028d5760405162461bcd60e51b815260040161020f906107b4565b600480546001600160a01b0319166001600160a01b0392909216919091179055565b336102b861033b565b6001600160a01b0316146102de5760405162461bcd60e51b815260040161020f906107b4565b600580546001600160a01b0319166001600160a01b0392909216919091179055565b3361030961033b565b6001600160a01b03161461032f5760405162461bcd60e51b815260040161020f906107b4565b61033960006104a4565b565b6000546001600160a01b031690565b3361035361033b565b6001600160a01b0316146103795760405162461bcd60e51b815260040161020f906107b4565b6103846001826104f4565b507f0ad8e54ac59bf2d8a7a1474c1af503b593553cf4fcaaffdef04ab5249f89762b816040516102539190610748565b336103bd61033b565b6001600160a01b0316146103e35760405162461bcd60e51b815260040161020f906107b4565b6001600160a01b0381166104095760405162461bcd60e51b815260040161020f906107ee565b610412816104a4565b50565b3361041e61033b565b6001600160a01b0316146104445760405162461bcd60e51b815260040161020f906107b4565b600380546001600160a01b0319166001600160a01b0392909216919091179055565b6060600061047383610509565b9392505050565b6000610473836001600160a01b038416610565565b6000610473836001600160a01b03841661057d565b600080546001600160a01b038381166001600160a01b0319831681178455604051919092169283917f8be0079c531659141344cd1fd0a4f28419497f9722a3daafe3b4186f6b6457e09190a35050565b6000610473836001600160a01b0384166105c7565b60608160000180548060200260200160405190810160405280929190818152602001828054801561055957602002820191906000526020600020905b815481526020019060010190808311610545575b50505050509050919050565b60009081526001919091016020526040902054151590565b60006105898383610565565b6105bf575081546001818101845560008481526020808220909301849055845484825282860190935260409020919091556101da565b5060006101da565b600081815260018301602052604081205480156106b05760006105eb60018361084e565b85549091506000906105ff9060019061084e565b905081811461066457600086600001828154811061061f5761061f610861565b906000526020600020015490508087600001848154811061064257610642610861565b6000918252602080832090910192909255918252600188019052604090208390555b855486908061067557610675610877565b6001900381819060005260206000200160009055905585600101600086815260200190815260200160002060009055600193505050506101da565b60009150506101da565b60006001600160a01b0382166101da565b6106d4816106ba565b82525050565b60006106e683836106cb565b505060200190565b60006106f8825190565b80845260209384019383018060005b8381101561072c57815161071b88826106da565b975060208301925050600101610707565b509495945050505050565b6020808252810161047381846106ee565b602081016101da82846106cb565b61075f816106ba565b811461041257600080fd5b80356101da81610756565b60006020828403121561078a5761078a600080fd5b6000610796848461076a565b949350505050565b8015156106d4565b602081016101da828461079e565b60208082528181019081527f4f776e61626c653a2063616c6c6572206973206e6f7420746865206f776e65726040830152606082016101da565b602080825281016101da81602681527f4f776e61626c653a206e6577206f776e657220697320746865207a65726f206160208201526564647265737360d01b604082015260600190565b634e487b7160e01b600052601160045260246000fd5b818103818111156101da576101da610838565b634e487b7160e01b600052603260045260246000fd5b634e487b7160e01b600052603160045260246000fdfea26469706673582212207807065ed7712bacdeba438fd569ebb3eee720502156964fec3018fe7873cd2a64736f6c63430008120033",
	"linkReferences": {},
	"deployedLinkReferences": {}
}