{
	"_format": "hh-sol-artifact-1",
	"contractName": "FilmountainPoolV0",
	"sourceName": "contracts/pool/FilmountainPoolV0.sol",
	"abi": [
		{
			"inputs": [],
			"name": "ERC4626Overflow",
			"type": "error"
		},
		{
			"inputs": [],
			"name": "ERC4626ZeroShares",
			"type": "error"
		},
		{
			"inputs": [],
			"name": "InsufficientFunds",
			"type": "error"
		},
		{
			"inputs": [],
			"name": "NotEnoughBalance",
			"type": "error"
		},
		{
			"inputs": [
				{
					"internalType": "address",
					"name": "user",
					"type": "address"
				}
			],
			"name": "OnlyRegisteredUser",
			"type": "error"
		},
		{
			"inputs": [],
			"name": "UnauthorizedVault",
			"type": "error"
		},
		{
			"anonymous": false,
			"inputs": [
				{
					"indexed": false,
					"internalType": "address",
					"name": "previousAdmin",
					"type": "address"
				},
				{
					"indexed": false,
					"internalType": "address",
					"name": "newAdmin",
					"type": "address"
				}
			],
			"name": "AdminChanged",
			"type": "event"
		},
		{
			"anonymous": false,
			"inputs": [
				{
					"indexed": true,
					"internalType": "address",
					"name": "owner",
					"type": "address"
				},
				{
					"indexed": true,
					"internalType": "address",
					"name": "spender",
					"type": "address"
				},
				{
					"indexed": false,
					"internalType": "uint256",
					"name": "value",
					"type": "uint256"
				}
			],
			"name": "Approval",
			"type": "event"
		},
		{
			"anonymous": false,
			"inputs": [
				{
					"indexed": true,
					"internalType": "address",
					"name": "beacon",
					"type": "address"
				}
			],
			"name": "BeaconUpgraded",
			"type": "event"
		},
		{
			"anonymous": false,
			"inputs": [
				{
					"indexed": false,
					"internalType": "address",
					"name": "borrower",
					"type": "address"
				},
				{
					"indexed": false,
					"internalType": "uint256",
					"name": "amount",
					"type": "uint256"
				}
			],
			"name": "Borrow",
			"type": "event"
		},
		{
			"anonymous": false,
			"inputs": [
				{
					"indexed": false,
					"internalType": "address",
					"name": "depositer",
					"type": "address"
				},
				{
					"indexed": false,
					"internalType": "uint256",
					"name": "amount",
					"type": "uint256"
				}
			],
			"name": "Deposit",
			"type": "event"
		},
		{
			"anonymous": false,
			"inputs": [
				{
					"indexed": true,
					"internalType": "address",
					"name": "sender",
					"type": "address"
				},
				{
					"indexed": true,
					"internalType": "address",
					"name": "owner",
					"type": "address"
				},
				{
					"indexed": false,
					"internalType": "uint256",
					"name": "assets",
					"type": "uint256"
				},
				{
					"indexed": false,
					"internalType": "uint256",
					"name": "shares",
					"type": "uint256"
				}
			],
			"name": "Deposit",
			"type": "event"
		},
		{
			"anonymous": false,
			"inputs": [
				{
					"indexed": false,
					"internalType": "uint8",
					"name": "version",
					"type": "uint8"
				}
			],
			"name": "Initialized",
			"type": "event"
		},
		{
			"anonymous": false,
			"inputs": [
				{
					"indexed": true,
					"internalType": "address",
					"name": "previousOwner",
					"type": "address"
				},
				{
					"indexed": true,
					"internalType": "address",
					"name": "newOwner",
					"type": "address"
				}
			],
			"name": "OwnershipTransferred",
			"type": "event"
		},
		{
			"anonymous": false,
			"inputs": [
				{
					"indexed": false,
					"internalType": "address",
					"name": "sender",
					"type": "address"
				},
				{
					"indexed": false,
					"internalType": "uint256",
					"name": "amount",
					"type": "uint256"
				}
			],
			"name": "PayInterest",
			"type": "event"
		},
		{
			"anonymous": false,
			"inputs": [
				{
					"indexed": false,
					"internalType": "address",
					"name": "owner",
					"type": "address"
				},
				{
					"indexed": false,
					"internalType": "uint256",
					"name": "amount",
					"type": "uint256"
				}
			],
			"name": "PayPrincipal",
			"type": "event"
		},
		{
			"anonymous": false,
			"inputs": [
				{
					"indexed": false,
					"internalType": "address",
					"name": "factory",
					"type": "address"
				}
			],
			"name": "SetFactory",
			"type": "event"
		},
		{
			"anonymous": false,
			"inputs": [
				{
					"indexed": true,
					"internalType": "address",
					"name": "from",
					"type": "address"
				},
				{
					"indexed": true,
					"internalType": "address",
					"name": "to",
					"type": "address"
				},
				{
					"indexed": false,
					"internalType": "uint256",
					"name": "value",
					"type": "uint256"
				}
			],
			"name": "Transfer",
			"type": "event"
		},
		{
			"anonymous": false,
			"inputs": [
				{
					"indexed": true,
					"internalType": "address",
					"name": "implementation",
					"type": "address"
				}
			],
			"name": "Upgraded",
			"type": "event"
		},
		{
			"anonymous": false,
			"inputs": [
				{
					"indexed": false,
					"internalType": "address",
					"name": "owner",
					"type": "address"
				},
				{
					"indexed": false,
					"internalType": "uint256",
					"name": "amount",
					"type": "uint256"
				}
			],
			"name": "Withdraw",
			"type": "event"
		},
		{
			"anonymous": false,
			"inputs": [
				{
					"indexed": true,
					"internalType": "address",
					"name": "sender",
					"type": "address"
				},
				{
					"indexed": true,
					"internalType": "address",
					"name": "receiver",
					"type": "address"
				},
				{
					"indexed": true,
					"internalType": "address",
					"name": "owner",
					"type": "address"
				},
				{
					"indexed": false,
					"internalType": "uint256",
					"name": "assets",
					"type": "uint256"
				},
				{
					"indexed": false,
					"internalType": "uint256",
					"name": "shares",
					"type": "uint256"
				}
			],
			"name": "Withdraw",
			"type": "event"
		},
		{
			"inputs": [],
			"name": "FilmountainRegistry",
			"outputs": [
				{
					"internalType": "contract IFilmountainRegistry",
					"name": "",
					"type": "address"
				}
			],
			"stateMutability": "view",
			"type": "function"
		},
		{
			"inputs": [],
			"name": "SPVaultFactory",
			"outputs": [
				{
					"internalType": "contract ISPVaultFactory",
					"name": "",
					"type": "address"
				}
			],
			"stateMutability": "view",
			"type": "function"
		},
		{
			"inputs": [
				{
					"internalType": "address",
					"name": "owner",
					"type": "address"
				},
				{
					"internalType": "address",
					"name": "spender",
					"type": "address"
				}
			],
			"name": "allowance",
			"outputs": [
				{
					"internalType": "uint256",
					"name": "",
					"type": "uint256"
				}
			],
			"stateMutability": "view",
			"type": "function"
		},
		{
			"inputs": [
				{
					"internalType": "address",
					"name": "spender",
					"type": "address"
				},
				{
					"internalType": "uint256",
					"name": "amount",
					"type": "uint256"
				}
			],
			"name": "approve",
			"outputs": [
				{
					"internalType": "bool",
					"name": "",
					"type": "bool"
				}
			],
			"stateMutability": "nonpayable",
			"type": "function"
		},
		{
			"inputs": [],
			"name": "asset",
			"outputs": [
				{
					"internalType": "address",
					"name": "",
					"type": "address"
				}
			],
			"stateMutability": "view",
			"type": "function"
		},
		{
			"inputs": [],
			"name": "availableAssets",
			"outputs": [
				{
					"internalType": "uint256",
					"name": "",
					"type": "uint256"
				}
			],
			"stateMutability": "view",
			"type": "function"
		},
		{
			"inputs": [
				{
					"internalType": "address",
					"name": "account",
					"type": "address"
				}
			],
			"name": "balanceOf",
			"outputs": [
				{
					"internalType": "uint256",
					"name": "",
					"type": "uint256"
				}
			],
			"stateMutability": "view",
			"type": "function"
		},
		{
			"inputs": [
				{
					"internalType": "uint256",
					"name": "_amount",
					"type": "uint256"
				}
			],
			"name": "borrow",
			"outputs": [],
			"stateMutability": "nonpayable",
			"type": "function"
		},
		{
			"inputs": [
				{
					"internalType": "uint256",
					"name": "shares",
					"type": "uint256"
				}
			],
			"name": "convertToAssets",
			"outputs": [
				{
					"internalType": "uint256",
					"name": "",
					"type": "uint256"
				}
			],
			"stateMutability": "view",
			"type": "function"
		},
		{
			"inputs": [
				{
					"internalType": "uint256",
					"name": "assets",
					"type": "uint256"
				}
			],
			"name": "convertToShares",
			"outputs": [
				{
					"internalType": "uint256",
					"name": "",
					"type": "uint256"
				}
			],
			"stateMutability": "view",
			"type": "function"
		},
		{
			"inputs": [],
			"name": "decimals",
			"outputs": [
				{
					"internalType": "uint8",
					"name": "",
					"type": "uint8"
				}
			],
			"stateMutability": "view",
			"type": "function"
		},
		{
			"inputs": [
				{
					"internalType": "address",
					"name": "spender",
					"type": "address"
				},
				{
					"internalType": "uint256",
					"name": "subtractedValue",
					"type": "uint256"
				}
			],
			"name": "decreaseAllowance",
			"outputs": [
				{
					"internalType": "bool",
					"name": "",
					"type": "bool"
				}
			],
			"stateMutability": "nonpayable",
			"type": "function"
		},
		{
			"inputs": [
				{
					"internalType": "uint256",
					"name": "assets",
					"type": "uint256"
				},
				{
					"internalType": "address",
					"name": "receiver",
					"type": "address"
				}
			],
			"name": "deposit",
			"outputs": [
				{
					"internalType": "uint256",
					"name": "",
					"type": "uint256"
				}
			],
			"stateMutability": "nonpayable",
			"type": "function"
		},
		{
			"inputs": [],
			"name": "deposit",
			"outputs": [
				{
					"internalType": "uint256",
					"name": "shares",
					"type": "uint256"
				}
			],
			"stateMutability": "payable",
			"type": "function"
		},
		{
			"inputs": [
				{
					"internalType": "address",
					"name": "spender",
					"type": "address"
				},
				{
					"internalType": "uint256",
					"name": "addedValue",
					"type": "uint256"
				}
			],
			"name": "increaseAllowance",
			"outputs": [
				{
					"internalType": "bool",
					"name": "",
					"type": "bool"
				}
			],
			"stateMutability": "nonpayable",
			"type": "function"
		},
		{
			"inputs": [
				{
					"internalType": "address",
					"name": "_wFIL",
					"type": "address"
				},
				{
					"internalType": "address",
					"name": "_registry",
					"type": "address"
				}
			],
			"name": "initialize",
			"outputs": [],
			"stateMutability": "nonpayable",
			"type": "function"
		},
		{
			"inputs": [
				{
					"internalType": "address",
					"name": "",
					"type": "address"
				}
			],
			"name": "maxDeposit",
			"outputs": [
				{
					"internalType": "uint256",
					"name": "",
					"type": "uint256"
				}
			],
			"stateMutability": "view",
			"type": "function"
		},
		{
			"inputs": [
				{
					"internalType": "address",
					"name": "",
					"type": "address"
				}
			],
			"name": "maxMint",
			"outputs": [
				{
					"internalType": "uint256",
					"name": "",
					"type": "uint256"
				}
			],
			"stateMutability": "view",
			"type": "function"
		},
		{
			"inputs": [
				{
					"internalType": "address",
					"name": "owner",
					"type": "address"
				}
			],
			"name": "maxRedeem",
			"outputs": [
				{
					"internalType": "uint256",
					"name": "",
					"type": "uint256"
				}
			],
			"stateMutability": "view",
			"type": "function"
		},
		{
			"inputs": [
				{
					"internalType": "address",
					"name": "owner",
					"type": "address"
				}
			],
			"name": "maxWithdraw",
			"outputs": [
				{
					"internalType": "uint256",
					"name": "",
					"type": "uint256"
				}
			],
			"stateMutability": "view",
			"type": "function"
		},
		{
			"inputs": [
				{
					"internalType": "uint256",
					"name": "shares",
					"type": "uint256"
				},
				{
					"internalType": "address",
					"name": "receiver",
					"type": "address"
				}
			],
			"name": "mint",
			"outputs": [
				{
					"internalType": "uint256",
					"name": "",
					"type": "uint256"
				}
			],
			"stateMutability": "nonpayable",
			"type": "function"
		},
		{
			"inputs": [],
			"name": "name",
			"outputs": [
				{
					"internalType": "string",
					"name": "",
					"type": "string"
				}
			],
			"stateMutability": "view",
			"type": "function"
		},
		{
			"inputs": [],
			"name": "owner",
			"outputs": [
				{
					"internalType": "address",
					"name": "",
					"type": "address"
				}
			],
			"stateMutability": "view",
			"type": "function"
		},
		{
			"inputs": [],
			"name": "payInterest",
			"outputs": [],
			"stateMutability": "payable",
			"type": "function"
		},
		{
			"inputs": [
				{
					"internalType": "address",
					"name": "_owner",
					"type": "address"
				}
			],
			"name": "payPrincipal",
			"outputs": [
				{
					"internalType": "uint256",
					"name": "shares",
					"type": "uint256"
				}
			],
			"stateMutability": "payable",
			"type": "function"
		},
		{
			"inputs": [
				{
					"internalType": "uint256",
					"name": "assets",
					"type": "uint256"
				}
			],
			"name": "previewDeposit",
			"outputs": [
				{
					"internalType": "uint256",
					"name": "",
					"type": "uint256"
				}
			],
			"stateMutability": "view",
			"type": "function"
		},
		{
			"inputs": [
				{
					"internalType": "uint256",
					"name": "shares",
					"type": "uint256"
				}
			],
			"name": "previewMint",
			"outputs": [
				{
					"internalType": "uint256",
					"name": "",
					"type": "uint256"
				}
			],
			"stateMutability": "view",
			"type": "function"
		},
		{
			"inputs": [
				{
					"internalType": "uint256",
					"name": "shares",
					"type": "uint256"
				}
			],
			"name": "previewRedeem",
			"outputs": [
				{
					"internalType": "uint256",
					"name": "",
					"type": "uint256"
				}
			],
			"stateMutability": "view",
			"type": "function"
		},
		{
			"inputs": [
				{
					"internalType": "uint256",
					"name": "assets",
					"type": "uint256"
				}
			],
			"name": "previewWithdraw",
			"outputs": [
				{
					"internalType": "uint256",
					"name": "",
					"type": "uint256"
				}
			],
			"stateMutability": "view",
			"type": "function"
		},
		{
			"inputs": [],
			"name": "proxiableUUID",
			"outputs": [
				{
					"internalType": "bytes32",
					"name": "",
					"type": "bytes32"
				}
			],
			"stateMutability": "view",
			"type": "function"
		},
		{
			"inputs": [
				{
					"internalType": "uint256",
					"name": "shares",
					"type": "uint256"
				},
				{
					"internalType": "address",
					"name": "receiver",
					"type": "address"
				},
				{
					"internalType": "address",
					"name": "owner",
					"type": "address"
				}
			],
			"name": "redeem",
			"outputs": [
				{
					"internalType": "uint256",
					"name": "",
					"type": "uint256"
				}
			],
			"stateMutability": "nonpayable",
			"type": "function"
		},
		{
			"inputs": [],
			"name": "renounceOwnership",
			"outputs": [],
			"stateMutability": "nonpayable",
			"type": "function"
		},
		{
			"inputs": [],
			"name": "symbol",
			"outputs": [
				{
					"internalType": "string",
					"name": "",
					"type": "string"
				}
			],
			"stateMutability": "view",
			"type": "function"
		},
		{
			"inputs": [],
			"name": "totalAssets",
			"outputs": [
				{
					"internalType": "uint256",
					"name": "",
					"type": "uint256"
				}
			],
			"stateMutability": "view",
			"type": "function"
		},
		{
			"inputs": [],
			"name": "totalAssetsBorrowed",
			"outputs": [
				{
					"internalType": "uint256",
					"name": "",
					"type": "uint256"
				}
			],
			"stateMutability": "view",
			"type": "function"
		},
		{
			"inputs": [],
			"name": "totalSupply",
			"outputs": [
				{
					"internalType": "uint256",
					"name": "",
					"type": "uint256"
				}
			],
			"stateMutability": "view",
			"type": "function"
		},
		{
			"inputs": [
				{
					"internalType": "address",
					"name": "to",
					"type": "address"
				},
				{
					"internalType": "uint256",
					"name": "amount",
					"type": "uint256"
				}
			],
			"name": "transfer",
			"outputs": [
				{
					"internalType": "bool",
					"name": "",
					"type": "bool"
				}
			],
			"stateMutability": "nonpayable",
			"type": "function"
		},
		{
			"inputs": [
				{
					"internalType": "address",
					"name": "from",
					"type": "address"
				},
				{
					"internalType": "address",
					"name": "to",
					"type": "address"
				},
				{
					"internalType": "uint256",
					"name": "amount",
					"type": "uint256"
				}
			],
			"name": "transferFrom",
			"outputs": [
				{
					"internalType": "bool",
					"name": "",
					"type": "bool"
				}
			],
			"stateMutability": "nonpayable",
			"type": "function"
		},
		{
			"inputs": [
				{
					"internalType": "address",
					"name": "newOwner",
					"type": "address"
				}
			],
			"name": "transferOwnership",
			"outputs": [],
			"stateMutability": "nonpayable",
			"type": "function"
		},
		{
			"inputs": [
				{
					"internalType": "address",
					"name": "newImplementation",
					"type": "address"
				}
			],
			"name": "upgradeTo",
			"outputs": [],
			"stateMutability": "nonpayable",
			"type": "function"
		},
		{
			"inputs": [
				{
					"internalType": "address",
					"name": "newImplementation",
					"type": "address"
				},
				{
					"internalType": "bytes",
					"name": "data",
					"type": "bytes"
				}
			],
			"name": "upgradeToAndCall",
			"outputs": [],
			"stateMutability": "payable",
			"type": "function"
		},
		{
			"inputs": [],
			"name": "wFIL",
			"outputs": [
				{
					"internalType": "contract IWFIL",
					"name": "",
					"type": "address"
				}
			],
			"stateMutability": "view",
			"type": "function"
		},
		{
			"inputs": [
				{
					"internalType": "uint256",
					"name": "_amount",
					"type": "uint256"
				}
			],
			"name": "withdraw",
			"outputs": [
				{
					"internalType": "uint256",
					"name": "shares",
					"type": "uint256"
				}
			],
			"stateMutability": "nonpayable",
			"type": "function"
		},
		{
			"inputs": [
				{
					"internalType": "uint256",
					"name": "assets",
					"type": "uint256"
				},
				{
					"internalType": "address",
					"name": "receiver",
					"type": "address"
				},
				{
					"internalType": "address",
					"name": "owner",
					"type": "address"
				}
			],
			"name": "withdraw",
			"outputs": [
				{
					"internalType": "uint256",
					"name": "",
					"type": "uint256"
				}
			],
			"stateMutability": "nonpayable",
			"type": "function"
		},
		{
			"stateMutability": "payable",
			"type": "receive"
		}
	],
	"bytecode": "0x60a06040523060805234801561001457600080fd5b506080516135ed61004c60003960008181610b6201528181610ba201528181610dfd01528181610e3d0152610eb901526135ed6000f3fe6080604052600436106101fb5760003560e01c806301e1d1141461020757806306fdde031461023257806307a2d13a14610254578063095ea7b3146102745780630a28a477146102a1578063177160ad146102c157806318160ddd146102ef57806320124bce1461030457806323b872dd14610319578063242bba6a146103395780632e1a7d4d1461034c578063313ce5671461036c5780633659cfe61461038e57806338d52e0f146103b057806339509351146103d7578063402d267d146103f7578063485cc955146104175780634cdad506146102545780634f1ef2861461043757806352d1902d1461044a5780636e553f651461045f57806370a082311461047f578063715018a61461049f5780638da5cb5b146104b45780639382c5e5146104c957806394bf804d146104ea57806395d89b411461050a578063a15a211c1461051f578063a38deecf14610527578063a457c2d71461053e578063a9059cbb1461055e578063b3d7f6b91461057e578063b460af941461059e578063ba087652146105be578063bef44256146105de578063c5ebeaec146105ff578063c63d75b6146103f7578063c6e6f5921461061f578063ce96cb771461063f578063d0e30db01461065f578063d905777e14610667578063dd62ed3e14610687578063ef8b30f71461061f578063f2fde38b146106a757600080fd5b3661020257005b600080fd5b34801561021357600080fd5b5061021c6106c7565b6040516102299190612390565b60405180910390f35b34801561023e57600080fd5b5061024761074e565b6040516102299190612400565b34801561026057600080fd5b5061021c61026f366004612429565b6107e0565b34801561028057600080fd5b5061029461028f366004612475565b6107f3565b60405161022991906124ba565b3480156102ad57600080fd5b5061021c6102bc366004612429565b61080b565b3480156102cd57600080fd5b50610160546102e2906001600160a01b031681565b60405161022991906124fd565b3480156102fb57600080fd5b5060355461021c565b34801561031057600080fd5b5061021c610818565b34801561032557600080fd5b5061029461033436600461250b565b61088b565b61021c61034736600461255b565b6108b1565b34801561035857600080fd5b5061021c610367366004612429565b610933565b34801561037857600080fd5b50610381610b3e565b6040516102299190612585565b34801561039a57600080fd5b506103ae6103a936600461255b565b610b58565b005b3480156103bc57600080fd5b506065546001600160a01b03165b604051610229919061259c565b3480156103e357600080fd5b506102946103f2366004612475565b610c20565b34801561040357600080fd5b5061021c61041236600461255b565b610c42565b34801561042357600080fd5b506103ae6104323660046125aa565b610c49565b6103ae6104453660046126d3565b610df3565b34801561045657600080fd5b5061021c610eac565b34801561046b57600080fd5b5061021c61047a366004612720565b610f0a565b34801561048b57600080fd5b5061021c61049a36600461255b565b610f4d565b3480156104ab57600080fd5b506103ae610f68565b3480156104c057600080fd5b506103ca610f7c565b3480156104d557600080fd5b50610161546102e2906001600160a01b031681565b3480156104f657600080fd5b5061021c610505366004612720565b610f8b565b34801561051657600080fd5b50610247610fce565b6103ae610fdd565b34801561053357600080fd5b5061021c6101625481565b34801561054a57600080fd5b50610294610559366004612475565b611117565b34801561056a57600080fd5b50610294610579366004612475565b61115f565b34801561058a57600080fd5b5061021c610599366004612429565b61116d565b3480156105aa57600080fd5b5061021c6105b9366004612742565b61117a565b3480156105ca57600080fd5b5061021c6105d9366004612742565b6111c6565b3480156105ea57600080fd5b5061015f546102e2906001600160a01b031681565b34801561060b57600080fd5b506103ae61061a366004612429565b61120a565b34801561062b57600080fd5b5061021c61063a366004612429565b611360565b34801561064b57600080fd5b5061021c61065a36600461255b565b61136d565b61021c611382565b34801561067357600080fd5b5061021c61068236600461255b565b61152b565b34801561069357600080fd5b5061021c6106a23660046125aa565b611536565b3480156106b357600080fd5b506103ae6106c236600461255b565b611561565b6101625461015f546040516370a0823160e01b8152600092916001600160a01b0316906370a08231906106fe90309060040161259c565b602060405180830381865afa15801561071b573d6000803e3d6000fd5b505050506040513d601f19601f8201168201806040525081019061073f9190612793565b61074991906127ca565b905090565b60606036805461075d906127f3565b80601f0160208091040260200160405190810160405280929190818152602001828054610789906127f3565b80156107d65780601f106107ab576101008083540402835291602001916107d6565b820191906000526020600020905b8154815290600101906020018083116107b957829003601f168201915b5050505050905090565b60006107ed826000611598565b92915050565b6000336108018185856115d2565b5060019392505050565b60006107ed826001611686565b61015f546040516370a0823160e01b81526000916001600160a01b0316906370a082319061084a90309060040161259c565b602060405180830381865afa158015610867573d6000803e3d6000fd5b505050506040513d601f19601f820116820180604052508101906107499190612793565b6000336108998582856116b6565b6108a4858585611700565b60019150505b9392505050565b60006108bb6117de565b346108c58161080b565b91506108d1838361180d565b8061016260008282546108e4919061281f565b909155506108f4905083826118b2565b7f4c5603ca8a64bca3d3f9a35df9ace1b68f71f10f299d08f9f108efb09afb44b68382604051610925929190612832565b60405180910390a150919050565b600061093d6118dd565b61016054604051634209fff160e01b81526001600160a01b0390911690634209fff19061096e90339060040161259c565b602060405180830381865afa15801561098b573d6000803e3d6000fd5b505050506040513d601f19601f820116820180604052508101906109af9190612860565b6109d757336040516307eddfbf60e01b81526004016109ce919061259c565b60405180910390fd5b6109e08261080b565b90506109ec338261180d565b61015f546040516370a0823160e01b81526000916001600160a01b0316906370a0823190610a1e90309060040161259c565b602060405180830381865afa158015610a3b573d6000803e3d6000fd5b505050506040513d601f19601f82011682018060405250810190610a5f9190612793565b905082811015610a825760405163356680b760e01b815260040160405180910390fd5b8015610af55761015f54604051632e1a7d4d60e01b81526001600160a01b0390911690632e1a7d4d90610ab9908690600401612390565b600060405180830381600087803b158015610ad357600080fd5b505af1158015610ae7573d6000803e3d6000fd5b50505050610af533846118b2565b7f884edad9ce6fa2440d8a54cc123490eb96d2768479d49ff9c7366125a94243643384604051610b26929190612832565b60405180910390a150610b396001609755565b919050565b6000806065546107499190600160a01b900460ff16612881565b6001600160a01b037f0000000000000000000000000000000000000000000000000000000000000000163003610ba05760405162461bcd60e51b81526004016109ce906128d8565b7f00000000000000000000000000000000000000000000000000000000000000006001600160a01b0316610bd261190d565b6001600160a01b031614610bf85760405162461bcd60e51b81526004016109ce9061291f565b610c0181611929565b60408051600080825260208201909252610c1d91839190611931565b50565b600033610801818585610c338383611536565b610c3d91906127ca565b6115d2565b5060001990565b600054610100900460ff1615808015610c695750600054600160ff909116105b80610c8a5750610c7830611a13565b158015610c8a575060005460ff166001145b610ca65760405162461bcd60e51b81526004016109ce9061297a565b6000805460ff191660011790558015610cc9576000805461ff0019166101001790555b610d0b604051806040016040528060048152602001631e91925360e21b815250604051806040016040528060048152602001631e91925360e21b815250611a22565b610d1430611a53565b610d1c611a83565b610d24611ab2565b610d2c611ae1565b61015f80546001600160a01b038086166001600160a01b0319928316179092556101608054928516929091169190911790556000610d7369014542ba12a337c00000611360565b9050610d7f3382611b08565b69014542ba12a337c000006101626000828254610d9c91906127ca565b909155505081159050610dee576000805461ff00191690556040517f7f26b83ff96e1f2b6a682f133852f6798a09c465da95921460cefb384740249890610de59060019061299f565b60405180910390a15b505050565b6001600160a01b037f0000000000000000000000000000000000000000000000000000000000000000163003610e3b5760405162461bcd60e51b81526004016109ce906128d8565b7f00000000000000000000000000000000000000000000000000000000000000006001600160a01b0316610e6d61190d565b6001600160a01b031614610e935760405162461bcd60e51b81526004016109ce9061291f565b610e9c82611929565b610ea882826001611931565b5050565b6000306001600160a01b037f00000000000000000000000000000000000000000000000000000000000000001614610ef65760405162461bcd60e51b81526004016109ce90612a02565b506000805160206135518339815191525b90565b6000610f1582610c42565b831115610f345760405162461bcd60e51b81526004016109ce90612a49565b6000610f3f84611360565b90506108aa33848684611b8c565b6001600160a01b031660009081526033602052604090205490565b610f706117de565b610f7a6000611c01565b565b60c9546001600160a01b031690565b6000610f9682610c42565b831115610fb55760405162461bcd60e51b81526004016109ce90612a8b565b6000610fc08461116d565b90506108aa33848387611b8c565b60606037805461075d906127f3565b610160546040805163fbfa77cf60e01b8152905133926001600160a01b03169163fbfa77cf9160048083019260209291908290030181865afa158015611027573d6000803e3d6000fd5b505050506040513d601f19601f8201168201806040525081019061104b9190612aa6565b6001600160a01b0316146110725760405163c732d64360e01b815260040160405180910390fd5b61015f60009054906101000a90046001600160a01b03166001600160a01b031663d0e30db0346040518263ffffffff1660e01b81526004016000604051808303818588803b1580156110c357600080fd5b505af11580156110d7573d6000803e3d6000fd5b50505050507fe3987e0dbdbf4e59549b9a515a30f3b915efabc9a33f465a6da4db771831efaf333460405161110d929190612832565b60405180910390a1565b600033816111258286611536565b9050838110156111475760405162461bcd60e51b81526004016109ce90612b09565b61115482868684036115d2565b506001949350505050565b600033610801818585611700565b60006107ed826001611598565b60006111858261136d565b8411156111a45760405162461bcd60e51b81526004016109ce90612b4d565b60006111af8561080b565b90506111be3385858885611c53565b949350505050565b60006111d18261152b565b8411156111f05760405162461bcd60e51b81526004016109ce90612b91565b60006111fb856107e0565b90506111be3385858489611c53565b610160546040805163fbfa77cf60e01b8152905133926001600160a01b03169163fbfa77cf9160048083019260209291908290030181865afa158015611254573d6000803e3d6000fd5b505050506040513d601f19601f820116820180604052508101906112789190612aa6565b6001600160a01b03161461129f5760405163c732d64360e01b815260040160405180910390fd5b8061016260008282546112b291906127ca565b909155505061015f54604051632e1a7d4d60e01b81526001600160a01b0390911690632e1a7d4d906112e8908490600401612390565b600060405180830381600087803b15801561130257600080fd5b505af1158015611316573d6000803e3d6000fd5b5050505061132433826118b2565b7fcbc04eca7e9da35cb1393a6135a199ca52e450d5e9251cbd99f7847d33a367503382604051611355929190612832565b60405180910390a150565b60006107ed826000611686565b60006107ed61137b83610f4d565b6000611598565b600061138c6118dd565b61016054604051634209fff160e01b81526001600160a01b0390911690634209fff1906113bd90339060040161259c565b602060405180830381865afa1580156113da573d6000803e3d6000fd5b505050506040513d601f19601f820116820180604052508101906113fe9190612860565b61141d57336040516307eddfbf60e01b81526004016109ce919061259c565b3461142733610c42565b81111561144757604051630cd8567560e21b815260040160405180910390fd5b61145081611360565b91508160000361147357604051636646782360e01b815260040160405180910390fd5b61015f60009054906101000a90046001600160a01b03166001600160a01b031663d0e30db0826040518263ffffffff1660e01b81526004016000604051808303818588803b1580156114c457600080fd5b505af11580156114d8573d6000803e3d6000fd5b50505050506114e73383611b08565b7fe1fffcc4923d04b559f4d29a8bfc6cda04eb5b0d3c460751c2402c5c5cc9109c3382604051611518929190612832565b60405180910390a150610f076001609755565b60006107ed82610f4d565b6001600160a01b03918216600090815260346020908152604080832093909416825291909152205490565b6115696117de565b6001600160a01b03811661158f5760405162461bcd60e51b81526004016109ce90612be4565b610c1d81611c01565b60006108aa6115a56106c7565b6115b09060016127ca565b6115bc6000600a612d02565b6035546115c991906127ca565b85919085611cf6565b6001600160a01b0383166115f85760405162461bcd60e51b81526004016109ce90612d58565b6001600160a01b03821661161e5760405162461bcd60e51b81526004016109ce90612da7565b6001600160a01b0380841660008181526034602090815260408083209487168084529490915290819020849055517f8c5be1e5ebec7d5bd14f71427d1e84f3dd0314c0f7b2291e5b200ac8c7c3b92590611679908590612390565b60405180910390a3505050565b60006108aa61169682600a612d02565b6035546116a391906127ca565b6116ab6106c7565b6115c99060016127ca565b60006116c28484611536565b905060001981146116fa57818110156116ed5760405162461bcd60e51b81526004016109ce90612deb565b6116fa84848484036115d2565b50505050565b6001600160a01b0383166117265760405162461bcd60e51b81526004016109ce90612e3d565b6001600160a01b03821661174c5760405162461bcd60e51b81526004016109ce90612e8d565b6001600160a01b038316600090815260336020526040902054818110156117855760405162461bcd60e51b81526004016109ce90612ee0565b6001600160a01b038085166000818152603360205260408082208686039055928616808252908390208054860190559151600080516020613598833981519152906117d1908690612390565b60405180910390a36116fa565b336117e7610f7c565b6001600160a01b031614610f7a5760405162461bcd60e51b81526004016109ce90612f22565b6001600160a01b0382166118335760405162461bcd60e51b81526004016109ce90612f70565b6001600160a01b0382166000908152603360205260409020548181101561186c5760405162461bcd60e51b81526004016109ce90612fbf565b6001600160a01b03831660008181526033602052604080822085850390556035805486900390555190919060008051602061359883398151915290611679908690612390565b600080600080600085875af1905080610dee5760405162461bcd60e51b81526004016109ce90612ff9565b6002609754036118ff5760405162461bcd60e51b81526004016109ce9061303d565b6002609755565b6001609755565b600080516020613551833981519152546001600160a01b031690565b610c1d6117de565b7f4910fdfa16fed3260ed0e7147f7cc6da11a60208b5b9406d12a635614ffd91435460ff161561196457610dee83611d53565b826001600160a01b03166352d1902d6040518163ffffffff1660e01b8152600401602060405180830381865afa9250505080156119be575060408051601f3d908101601f191682019092526119bb91810190612793565b60015b6119da5760405162461bcd60e51b81526004016109ce90613098565b6000805160206135518339815191528114611a075760405162461bcd60e51b81526004016109ce906130ee565b50610dee838383611da7565b6001600160a01b03163b151590565b600054610100900460ff16611a495760405162461bcd60e51b81526004016109ce90613146565b610ea88282611dcc565b600054610100900460ff16611a7a5760405162461bcd60e51b81526004016109ce90613146565b610c1d81611e0c565b600054610100900460ff16611aaa5760405162461bcd60e51b81526004016109ce90613146565b610f7a611e91565b600054610100900460ff16611ad95760405162461bcd60e51b81526004016109ce90613146565b610f7a611eb8565b600054610100900460ff16610f7a5760405162461bcd60e51b81526004016109ce90613146565b6001600160a01b038216611b2e5760405162461bcd60e51b81526004016109ce9061318a565b8060356000828254611b4091906127ca565b90915550506001600160a01b0382166000818152603360205260408082208054850190555160008051602061359883398151915290611b80908590612390565b60405180910390a35050565b606554611ba4906001600160a01b0316853085611ee8565b611bae8382611b08565b826001600160a01b0316846001600160a01b03167fdcbc1c05240f31ff3ad067ef1ee35ce4997762752e3a095284754544f4c709d78484604051611bf392919061319a565b60405180910390a350505050565b60c980546001600160a01b038381166001600160a01b0319831681179093556040519116919082907f8be0079c531659141344cd1fd0a4f28419497f9722a3daafe3b4186f6b6457e090600090a35050565b826001600160a01b0316856001600160a01b031614611c7757611c778386836116b6565b611c81838261180d565b606554611c98906001600160a01b03168584611f40565b826001600160a01b0316846001600160a01b0316866001600160a01b03167ffbde797d201c681b91056529119e0b02407c7bb96a4a2c75c01fc9667232c8db8585604051611ce792919061319a565b60405180910390a45050505050565b600080611d04868686611f5f565b90506001836002811115611d1a57611d1a6131a8565b148015611d37575060008480611d3257611d326131be565b868809115b15611d4a57611d476001826127ca565b90505b95945050505050565b611d5c81611a13565b611d785760405162461bcd60e51b81526004016109ce9061321e565b60008051602061355183398151915280546001600160a01b0319166001600160a01b0392909216919091179055565b611db083612021565b600082511180611dbd5750805b15610dee576116fa8383612061565b600054610100900460ff16611df35760405162461bcd60e51b81526004016109ce90613146565b6036611dff83826132f2565b506037610dee82826132f2565b600054610100900460ff16611e335760405162461bcd60e51b81526004016109ce90613146565b600080611e3f83612086565b9150915081611e4f576012611e51565b805b606580546001600160a01b039095166001600160a01b031960ff93909316600160a01b02929092166001600160a81b031990951694909417179092555050565b600054610100900460ff166119065760405162461bcd60e51b81526004016109ce90613146565b600054610100900460ff16611edf5760405162461bcd60e51b81526004016109ce90613146565b610f7a33611c01565b6116fa846323b872dd60e01b858585604051602401611f09939291906133b0565b60408051601f198184030181529190526020810180516001600160e01b03166001600160e01b031990931692909217909152612162565b610dee8363a9059cbb60e01b8484604051602401611f09929190612832565b6000808060001985870985870292508281108382030391505080600003611f9957838281611f8f57611f8f6131be565b04925050506108aa565b808411611fb85760405162461bcd60e51b81526004016109ce90613404565b60008486880960026001871981018816978890046003810283188082028403028082028403028082028403028082028403028082028403029081029092039091026000889003889004909101858311909403939093029303949094049190911702949350505050565b61202a81611d53565b6040516001600160a01b038216907fbc7cd75a20ee27fd9adebab32041f755214dbc6bffa90cc0225b39da2e5c2d3b90600090a250565b60606108aa8383604051806060016040528060278152602001613571602791396121f4565b60408051600481526024810182526020810180516001600160e01b031663313ce56760e01b17905290516000918291829182916001600160a01b038716916120cd91613436565b600060405180830381855afa9150503d8060008114612108576040519150601f19603f3d011682016040523d82523d6000602084013e61210d565b606091505b509150915081801561212157506020815110155b156121555760008180602001905181019061213c9190612793565b905060ff8111612153576001969095509350505050565b505b5060009485945092505050565b60006121b7826040518060400160405280602081526020017f5361666545524332303a206c6f772d6c6576656c2063616c6c206661696c6564815250856001600160a01b031661226c9092919063ffffffff16565b90508051600014806121d85750808060200190518101906121d89190612860565b610dee5760405162461bcd60e51b81526004016109ce90613489565b6060600080856001600160a01b0316856040516122119190613436565b600060405180830381855af49150503d806000811461224c576040519150601f19603f3d011682016040523d82523d6000602084013e612251565b606091505b50915091506122628683838761227b565b9695505050505050565b60606111be84846000856122c2565b606083156122b85782516000036122b15761229585611a13565b6122b15760405162461bcd60e51b81526004016109ce906134cd565b50816111be565b6111be838361235e565b6060824710156122e45760405162461bcd60e51b81526004016109ce90613520565b600080866001600160a01b031685876040516123009190613436565b60006040518083038185875af1925050503d806000811461233d576040519150601f19603f3d011682016040523d82523d6000602084013e612342565b606091505b50915091506123538783838761227b565b979650505050505050565b81511561236e5781518083602001fd5b8060405162461bcd60e51b81526004016109ce9190612400565b805b82525050565b602081016107ed8284612388565b60005b838110156123b95781810151838201526020016123a1565b50506000910152565b601f01601f191690565b60006123d6825190565b8084526020840193506123ed81856020860161239e565b6123f6816123c2565b9093019392505050565b602080825281016108aa81846123cc565b805b8114610c1d57600080fd5b80356107ed81612411565b60006020828403121561243e5761243e600080fd5b60006111be848461241e565b6001600160a01b031690565b60006107ed8261244a565b61241381612456565b80356107ed81612461565b6000806040838503121561248b5761248b600080fd5b6000612497858561246a565b92505060206124a88582860161241e565b9150509250929050565b80151561238a565b602081016107ed82846124b2565b60006107ed6124d9610f078461244a565b61244a565b60006107ed826124c8565b60006107ed826124de565b61238a816124e9565b602081016107ed82846124f4565b60008060006060848603121561252357612523600080fd5b600061252f868661246a565b93505060206125408682870161246a565b92505060406125518682870161241e565b9150509250925092565b60006020828403121561257057612570600080fd5b60006111be848461246a565b60ff811661238a565b602081016107ed828461257c565b61238a81612456565b602081016107ed8284612593565b600080604083850312156125c0576125c0600080fd5b60006125cc858561246a565b92505060206124a88582860161246a565b634e487b7160e01b600052604160045260246000fd5b6125fc826123c2565b81018181106001600160401b0382111715612619576126196125dd565b6040525050565b600061262b60405190565b9050610b3982826125f3565b60006001600160401b03821115612650576126506125dd565b612659826123c2565b60200192915050565b82818337506000910152565b600061268161267c84612637565b612620565b90508281526020810184848401111561269c5761269c600080fd5b6126a7848285612662565b509392505050565b600082601f8301126126c3576126c3600080fd5b81356111be84826020860161266e565b600080604083850312156126e9576126e9600080fd5b60006126f5858561246a565b92505060208301356001600160401b0381111561271457612714600080fd5b6124a8858286016126af565b6000806040838503121561273657612736600080fd5b60006125cc858561241e565b60008060006060848603121561275a5761275a600080fd5b6000612766868661241e565b93505060206127778682870161246a565b92505060406125518682870161246a565b80516107ed81612411565b6000602082840312156127a8576127a8600080fd5b60006111be8484612788565b634e487b7160e01b600052601160045260246000fd5b808201808211156107ed576107ed6127b4565b634e487b7160e01b600052602260045260246000fd5b60028104600182168061280757607f821691505b602082108103612819576128196127dd565b50919050565b818103818111156107ed576107ed6127b4565b604081016128408285612593565b6108aa6020830184612388565b801515612413565b80516107ed8161284d565b60006020828403121561287557612875600080fd5b60006111be8484612855565b60ff9182169190811690828201908111156107ed576107ed6127b4565b602c815260006020820160008051602061353183398151915281526b19195b1959d85d1958d85b1b60a21b602082015291505b5060400190565b602080825281016107ed8161289e565b602c815260006020820160008051602061353183398151915281526b6163746976652070726f787960a01b602082015291506128d1565b602080825281016107ed816128e8565b602e81526000602082017f496e697469616c697a61626c653a20636f6e747261637420697320616c72656181526d191e481a5b9a5d1a585b1a5e995960921b602082015291506128d1565b602080825281016107ed8161292f565b60ff1690565b61238a8160006107ed8261298a565b602081016107ed8284612990565b603881526000602082017f555550535570677261646561626c653a206d757374206e6f742062652063616c8152771b1959081d1a1c9bdd59da0819195b1959d85d1958d85b1b60421b602082015291506128d1565b602080825281016107ed816129ad565b601e81526000602082017f455243343632363a206465706f736974206d6f7265207468616e206d61780000815291505b5060200190565b602080825281016107ed81612a12565b601b81526000602082017a08aa486686c646c7440dad2dce840dadee4ca40e8d0c2dc40dac2f602b1b81529150612a42565b602080825281016107ed81612a59565b80516107ed81612461565b600060208284031215612abb57612abb600080fd5b60006111be8484612a9b565b602581526000602082017f45524332303a2064656372656173656420616c6c6f77616e63652062656c6f77815264207a65726f60d81b602082015291506128d1565b602080825281016107ed81612ac7565b601f81526000602082017f455243343632363a207769746864726177206d6f7265207468616e206d61780081529150612a42565b602080825281016107ed81612b19565b601d81526000602082017f455243343632363a2072656465656d206d6f7265207468616e206d617800000081529150612a42565b602080825281016107ed81612b5d565b602681526000602082017f4f776e61626c653a206e6577206f776e657220697320746865207a65726f206181526564647265737360d01b602082015291506128d1565b602080825281016107ed81612ba1565b80825b6001851115612c3357808604811115612c1257612c126127b4565b6001851615612c2057908102905b8002612c2c8560011c90565b9450612bf7565b94509492505050565b600082612c4b575060016108aa565b81612c58575060006108aa565b8160018114612c6e5760028114612c7857612ca5565b60019150506108aa565b60ff841115612c8957612c896127b4565b8360020a915084821115612c9f57612c9f6127b4565b506108aa565b5060208310610133831016604e8410600b8410161715612cd8575081810a83811115612cd357612cd36127b4565b6108aa565b612ce58484846001612bf4565b92509050818404811115612cfb57612cfb6127b4565b0292915050565b600060ff831692506108aa6000198484612c3c565b602481526000602082017f45524332303a20617070726f76652066726f6d20746865207a65726f206164648152637265737360e01b602082015291506128d1565b602080825281016107ed81612d17565b602281526000602082017f45524332303a20617070726f766520746f20746865207a65726f206164647265815261737360f01b602082015291506128d1565b602080825281016107ed81612d68565b601d81526000602082017f45524332303a20696e73756666696369656e7420616c6c6f77616e636500000081529150612a42565b602080825281016107ed81612db7565b602581526000602082017f45524332303a207472616e736665722066726f6d20746865207a65726f206164815264647265737360d81b602082015291506128d1565b602080825281016107ed81612dfb565b602381526000602082017f45524332303a207472616e7366657220746f20746865207a65726f206164647281526265737360e81b602082015291506128d1565b602080825281016107ed81612e4d565b602681526000602082017f45524332303a207472616e7366657220616d6f756e7420657863656564732062815265616c616e636560d01b602082015291506128d1565b602080825281016107ed81612e9d565b60208082527f4f776e61626c653a2063616c6c6572206973206e6f7420746865206f776e657291019081526000612a42565b602080825281016107ed81612ef0565b602181526000602082017f45524332303a206275726e2066726f6d20746865207a65726f206164647265738152607360f81b602082015291506128d1565b602080825281016107ed81612f32565b602281526000602082017f45524332303a206275726e20616d6f756e7420657863656564732062616c616e815261636560f01b602082015291506128d1565b602080825281016107ed81612f80565b601381526000602082017211551217d514905394d1915497d19052531151606a1b81529150612a42565b602080825281016107ed81612fcf565b601f81526000602082017f5265656e7472616e637947756172643a207265656e7472616e742063616c6c0081529150612a42565b602080825281016107ed81613009565b602e81526000602082017f45524331393637557067726164653a206e657720696d706c656d656e7461746981526d6f6e206973206e6f74205555505360901b602082015291506128d1565b602080825281016107ed8161304d565b602981526000602082017f45524331393637557067726164653a20756e737570706f727465642070726f788152681a58589b195555525160ba1b602082015291506128d1565b602080825281016107ed816130a8565b602b81526000602082017f496e697469616c697a61626c653a20636f6e7472616374206973206e6f74206981526a6e697469616c697a696e6760a81b602082015291506128d1565b602080825281016107ed816130fe565b601f81526000602082017f45524332303a206d696e7420746f20746865207a65726f20616464726573730081529150612a42565b602080825281016107ed81613156565b604081016128408285612388565b634e487b7160e01b600052602160045260246000fd5b634e487b7160e01b600052601260045260246000fd5b602d81526000602082017f455243313936373a206e657720696d706c656d656e746174696f6e206973206e81526c1bdd08184818dbdb9d1c9858dd609a1b602082015291506128d1565b602080825281016107ed816131d4565b60006107ed610f078381565b6132438361322e565b815460001960089490940293841b1916921b91909117905550565b6000610dee81848461323a565b81811015610ea85761327e60008261325e565b60010161326b565b601f821115610dee576000818152602090206020601f850104810160208510156132ad5750805b6132bf6020601f86010483018261326b565b5050505050565b6000196008929092029190911c191690565b60006132e483836132c6565b600290930290921792915050565b81516001600160401b0381111561330b5761330b6125dd565b61331582546127f3565b613320828285613286565b6020601f83116001811461334e576000841561333c5750858201515b61334685826132d8565b8655506133a8565b600085815260208120601f198616915b8281101561337e578885015182556020948501946001909201910161335e565b8683101561339b5784890151613397601f8916826132c6565b8355505b6001600288020188555050505b505050505050565b606081016133be8286612593565b6133cb6020830185612593565b6111be6040830184612388565b60158152600060208201744d6174683a206d756c446976206f766572666c6f7760581b81529150612a42565b602080825281016107ed816133d8565b600061341e825190565b61342c81856020860161239e565b9290920192915050565b60006108aa8284613414565b602a81526000602082017f5361666545524332303a204552433230206f7065726174696f6e20646964206e8152691bdd081cdd58d8d9595960b21b602082015291506128d1565b602080825281016107ed81613442565b601d81526000602082017f416464726573733a2063616c6c20746f206e6f6e2d636f6e747261637400000081529150612a42565b602080825281016107ed81613499565b602681526000602082017f416464726573733a20696e73756666696369656e742062616c616e636520666f8152651c8818d85b1b60d21b602082015291506128d1565b602080825281016107ed816134dd56fe46756e6374696f6e206d7573742062652063616c6c6564207468726f75676820360894a13ba1a3210667c828492db98dca3e2076cc3735a920a3ca505d382bbc416464726573733a206c6f772d6c6576656c2064656c65676174652063616c6c206661696c6564ddf252ad1be2c89b69c2b068fc378daa952ba7f163c4a11628f55a4df523b3efa2646970667358221220798fa46a64e4f45e5ca6877330bf2b9ec6a62b976047b1a2cba26bfd5b76757f64736f6c63430008120033",
	"linkReferences": {},
	"deployedLinkReferences": {}
}