{
	"_format": "hh-sol-artifact-1",
	"contractName": "FilmountainPoolV0",
	"sourceName": "contracts/pool/FilmountainPoolV0.sol",
	"abi": [
		{
			"inputs": [],
			"name": "ERC4626Overflow",
			"type": "error"
		},
		{
			"inputs": [],
			"name": "ERC4626ZeroShares",
			"type": "error"
		},
		{
			"inputs": [],
			"name": "InsufficientFunds",
			"type": "error"
		},
		{
			"inputs": [],
			"name": "NotEnoughBalance",
			"type": "error"
		},
		{
			"inputs": [
				{
					"internalType": "address",
					"name": "user",
					"type": "address"
				}
			],
			"name": "OnlyRegisteredUser",
			"type": "error"
		},
		{
			"inputs": [],
			"name": "UnauthorizedVault",
			"type": "error"
		},
		{
			"anonymous": false,
			"inputs": [
				{
					"indexed": false,
					"internalType": "address",
					"name": "previousAdmin",
					"type": "address"
				},
				{
					"indexed": false,
					"internalType": "address",
					"name": "newAdmin",
					"type": "address"
				}
			],
			"name": "AdminChanged",
			"type": "event"
		},
		{
			"anonymous": false,
			"inputs": [
				{
					"indexed": true,
					"internalType": "address",
					"name": "owner",
					"type": "address"
				},
				{
					"indexed": true,
					"internalType": "address",
					"name": "spender",
					"type": "address"
				},
				{
					"indexed": false,
					"internalType": "uint256",
					"name": "value",
					"type": "uint256"
				}
			],
			"name": "Approval",
			"type": "event"
		},
		{
			"anonymous": false,
			"inputs": [
				{
					"indexed": true,
					"internalType": "address",
					"name": "beacon",
					"type": "address"
				}
			],
			"name": "BeaconUpgraded",
			"type": "event"
		},
		{
			"anonymous": false,
			"inputs": [
				{
					"indexed": false,
					"internalType": "address",
					"name": "borrower",
					"type": "address"
				},
				{
					"indexed": false,
					"internalType": "uint256",
					"name": "amount",
					"type": "uint256"
				}
			],
			"name": "Borrow",
			"type": "event"
		},
		{
			"anonymous": false,
			"inputs": [
				{
					"indexed": true,
					"internalType": "address",
					"name": "sender",
					"type": "address"
				},
				{
					"indexed": true,
					"internalType": "address",
					"name": "owner",
					"type": "address"
				},
				{
					"indexed": false,
					"internalType": "uint256",
					"name": "assets",
					"type": "uint256"
				},
				{
					"indexed": false,
					"internalType": "uint256",
					"name": "shares",
					"type": "uint256"
				}
			],
			"name": "Deposit",
			"type": "event"
		},
		{
			"anonymous": false,
			"inputs": [
				{
					"indexed": false,
					"internalType": "address",
					"name": "depositer",
					"type": "address"
				},
				{
					"indexed": false,
					"internalType": "uint256",
					"name": "amount",
					"type": "uint256"
				}
			],
			"name": "Deposit",
			"type": "event"
		},
		{
			"anonymous": false,
			"inputs": [
				{
					"indexed": false,
					"internalType": "uint8",
					"name": "version",
					"type": "uint8"
				}
			],
			"name": "Initialized",
			"type": "event"
		},
		{
			"anonymous": false,
			"inputs": [
				{
					"indexed": true,
					"internalType": "address",
					"name": "previousOwner",
					"type": "address"
				},
				{
					"indexed": true,
					"internalType": "address",
					"name": "newOwner",
					"type": "address"
				}
			],
			"name": "OwnershipTransferred",
			"type": "event"
		},
		{
			"anonymous": false,
			"inputs": [
				{
					"indexed": false,
					"internalType": "address",
					"name": "sender",
					"type": "address"
				},
				{
					"indexed": false,
					"internalType": "uint256",
					"name": "amount",
					"type": "uint256"
				}
			],
			"name": "PayInterest",
			"type": "event"
		},
		{
			"anonymous": false,
			"inputs": [
				{
					"indexed": false,
					"internalType": "address",
					"name": "owner",
					"type": "address"
				},
				{
					"indexed": false,
					"internalType": "uint256",
					"name": "amount",
					"type": "uint256"
				}
			],
			"name": "PayPrincipal",
			"type": "event"
		},
		{
			"anonymous": false,
			"inputs": [
				{
					"indexed": false,
					"internalType": "address",
					"name": "factory",
					"type": "address"
				}
			],
			"name": "SetFactory",
			"type": "event"
		},
		{
			"anonymous": false,
			"inputs": [
				{
					"indexed": true,
					"internalType": "address",
					"name": "from",
					"type": "address"
				},
				{
					"indexed": true,
					"internalType": "address",
					"name": "to",
					"type": "address"
				},
				{
					"indexed": false,
					"internalType": "uint256",
					"name": "value",
					"type": "uint256"
				}
			],
			"name": "Transfer",
			"type": "event"
		},
		{
			"anonymous": false,
			"inputs": [
				{
					"indexed": true,
					"internalType": "address",
					"name": "implementation",
					"type": "address"
				}
			],
			"name": "Upgraded",
			"type": "event"
		},
		{
			"anonymous": false,
			"inputs": [
				{
					"indexed": true,
					"internalType": "address",
					"name": "sender",
					"type": "address"
				},
				{
					"indexed": true,
					"internalType": "address",
					"name": "receiver",
					"type": "address"
				},
				{
					"indexed": true,
					"internalType": "address",
					"name": "owner",
					"type": "address"
				},
				{
					"indexed": false,
					"internalType": "uint256",
					"name": "assets",
					"type": "uint256"
				},
				{
					"indexed": false,
					"internalType": "uint256",
					"name": "shares",
					"type": "uint256"
				}
			],
			"name": "Withdraw",
			"type": "event"
		},
		{
			"anonymous": false,
			"inputs": [
				{
					"indexed": false,
					"internalType": "address",
					"name": "from",
					"type": "address"
				},
				{
					"indexed": false,
					"internalType": "address",
					"name": "to",
					"type": "address"
				},
				{
					"indexed": false,
					"internalType": "uint256",
					"name": "amount",
					"type": "uint256"
				}
			],
			"name": "Withdraw",
			"type": "event"
		},
		{
			"inputs": [],
			"name": "FilmountainAddressRegistry",
			"outputs": [
				{
					"internalType": "contract IFilmountainAddressRegistry",
					"name": "",
					"type": "address"
				}
			],
			"stateMutability": "view",
			"type": "function"
		},
		{
			"inputs": [],
			"name": "FilmountainUserRegistry",
			"outputs": [
				{
					"internalType": "contract IFilmountainUserRegistry",
					"name": "",
					"type": "address"
				}
			],
			"stateMutability": "view",
			"type": "function"
		},
		{
			"inputs": [],
			"name": "SPVaultFactory",
			"outputs": [
				{
					"internalType": "contract ISPVaultFactory",
					"name": "",
					"type": "address"
				}
			],
			"stateMutability": "view",
			"type": "function"
		},
		{
			"inputs": [
				{
					"internalType": "address",
					"name": "owner",
					"type": "address"
				},
				{
					"internalType": "address",
					"name": "spender",
					"type": "address"
				}
			],
			"name": "allowance",
			"outputs": [
				{
					"internalType": "uint256",
					"name": "",
					"type": "uint256"
				}
			],
			"stateMutability": "view",
			"type": "function"
		},
		{
			"inputs": [
				{
					"internalType": "address",
					"name": "spender",
					"type": "address"
				},
				{
					"internalType": "uint256",
					"name": "amount",
					"type": "uint256"
				}
			],
			"name": "approve",
			"outputs": [
				{
					"internalType": "bool",
					"name": "",
					"type": "bool"
				}
			],
			"stateMutability": "nonpayable",
			"type": "function"
		},
		{
			"inputs": [],
			"name": "asset",
			"outputs": [
				{
					"internalType": "address",
					"name": "",
					"type": "address"
				}
			],
			"stateMutability": "view",
			"type": "function"
		},
		{
			"inputs": [],
			"name": "availableAssets",
			"outputs": [
				{
					"internalType": "uint256",
					"name": "",
					"type": "uint256"
				}
			],
			"stateMutability": "view",
			"type": "function"
		},
		{
			"inputs": [
				{
					"internalType": "address",
					"name": "account",
					"type": "address"
				}
			],
			"name": "balanceOf",
			"outputs": [
				{
					"internalType": "uint256",
					"name": "",
					"type": "uint256"
				}
			],
			"stateMutability": "view",
			"type": "function"
		},
		{
			"inputs": [
				{
					"internalType": "uint256",
					"name": "_amount",
					"type": "uint256"
				}
			],
			"name": "borrow",
			"outputs": [],
			"stateMutability": "nonpayable",
			"type": "function"
		},
		{
			"inputs": [
				{
					"internalType": "uint256",
					"name": "shares",
					"type": "uint256"
				}
			],
			"name": "convertToAssets",
			"outputs": [
				{
					"internalType": "uint256",
					"name": "",
					"type": "uint256"
				}
			],
			"stateMutability": "view",
			"type": "function"
		},
		{
			"inputs": [
				{
					"internalType": "uint256",
					"name": "assets",
					"type": "uint256"
				}
			],
			"name": "convertToShares",
			"outputs": [
				{
					"internalType": "uint256",
					"name": "",
					"type": "uint256"
				}
			],
			"stateMutability": "view",
			"type": "function"
		},
		{
			"inputs": [],
			"name": "decimals",
			"outputs": [
				{
					"internalType": "uint8",
					"name": "",
					"type": "uint8"
				}
			],
			"stateMutability": "view",
			"type": "function"
		},
		{
			"inputs": [
				{
					"internalType": "address",
					"name": "spender",
					"type": "address"
				},
				{
					"internalType": "uint256",
					"name": "subtractedValue",
					"type": "uint256"
				}
			],
			"name": "decreaseAllowance",
			"outputs": [
				{
					"internalType": "bool",
					"name": "",
					"type": "bool"
				}
			],
			"stateMutability": "nonpayable",
			"type": "function"
		},
		{
			"inputs": [
				{
					"internalType": "uint256",
					"name": "assets",
					"type": "uint256"
				},
				{
					"internalType": "address",
					"name": "receiver",
					"type": "address"
				}
			],
			"name": "deposit",
			"outputs": [
				{
					"internalType": "uint256",
					"name": "",
					"type": "uint256"
				}
			],
			"stateMutability": "nonpayable",
			"type": "function"
		},
		{
			"inputs": [],
			"name": "deposit",
			"outputs": [
				{
					"internalType": "uint256",
					"name": "shares",
					"type": "uint256"
				}
			],
			"stateMutability": "payable",
			"type": "function"
		},
		{
			"inputs": [
				{
					"internalType": "address",
					"name": "spender",
					"type": "address"
				},
				{
					"internalType": "uint256",
					"name": "addedValue",
					"type": "uint256"
				}
			],
			"name": "increaseAllowance",
			"outputs": [
				{
					"internalType": "bool",
					"name": "",
					"type": "bool"
				}
			],
			"stateMutability": "nonpayable",
			"type": "function"
		},
		{
			"inputs": [
				{
					"internalType": "address",
					"name": "_wFIL",
					"type": "address"
				},
				{
					"internalType": "address",
					"name": "_addrRegistry",
					"type": "address"
				},
				{
					"internalType": "address",
					"name": "_userRegistry",
					"type": "address"
				}
			],
			"name": "initialize",
			"outputs": [],
			"stateMutability": "nonpayable",
			"type": "function"
		},
		{
			"inputs": [
				{
					"internalType": "address",
					"name": "",
					"type": "address"
				}
			],
			"name": "maxDeposit",
			"outputs": [
				{
					"internalType": "uint256",
					"name": "",
					"type": "uint256"
				}
			],
			"stateMutability": "view",
			"type": "function"
		},
		{
			"inputs": [
				{
					"internalType": "address",
					"name": "",
					"type": "address"
				}
			],
			"name": "maxMint",
			"outputs": [
				{
					"internalType": "uint256",
					"name": "",
					"type": "uint256"
				}
			],
			"stateMutability": "view",
			"type": "function"
		},
		{
			"inputs": [
				{
					"internalType": "address",
					"name": "owner",
					"type": "address"
				}
			],
			"name": "maxRedeem",
			"outputs": [
				{
					"internalType": "uint256",
					"name": "",
					"type": "uint256"
				}
			],
			"stateMutability": "view",
			"type": "function"
		},
		{
			"inputs": [
				{
					"internalType": "address",
					"name": "owner",
					"type": "address"
				}
			],
			"name": "maxWithdraw",
			"outputs": [
				{
					"internalType": "uint256",
					"name": "",
					"type": "uint256"
				}
			],
			"stateMutability": "view",
			"type": "function"
		},
		{
			"inputs": [
				{
					"internalType": "uint256",
					"name": "shares",
					"type": "uint256"
				},
				{
					"internalType": "address",
					"name": "receiver",
					"type": "address"
				}
			],
			"name": "mint",
			"outputs": [
				{
					"internalType": "uint256",
					"name": "",
					"type": "uint256"
				}
			],
			"stateMutability": "nonpayable",
			"type": "function"
		},
		{
			"inputs": [],
			"name": "name",
			"outputs": [
				{
					"internalType": "string",
					"name": "",
					"type": "string"
				}
			],
			"stateMutability": "view",
			"type": "function"
		},
		{
			"inputs": [],
			"name": "owner",
			"outputs": [
				{
					"internalType": "address",
					"name": "",
					"type": "address"
				}
			],
			"stateMutability": "view",
			"type": "function"
		},
		{
			"inputs": [],
			"name": "payInterest",
			"outputs": [],
			"stateMutability": "payable",
			"type": "function"
		},
		{
			"inputs": [
				{
					"internalType": "address",
					"name": "_owner",
					"type": "address"
				}
			],
			"name": "payPrincipal",
			"outputs": [
				{
					"internalType": "uint256",
					"name": "shares",
					"type": "uint256"
				}
			],
			"stateMutability": "payable",
			"type": "function"
		},
		{
			"inputs": [
				{
					"internalType": "uint256",
					"name": "assets",
					"type": "uint256"
				}
			],
			"name": "previewDeposit",
			"outputs": [
				{
					"internalType": "uint256",
					"name": "",
					"type": "uint256"
				}
			],
			"stateMutability": "view",
			"type": "function"
		},
		{
			"inputs": [
				{
					"internalType": "uint256",
					"name": "shares",
					"type": "uint256"
				}
			],
			"name": "previewMint",
			"outputs": [
				{
					"internalType": "uint256",
					"name": "",
					"type": "uint256"
				}
			],
			"stateMutability": "view",
			"type": "function"
		},
		{
			"inputs": [
				{
					"internalType": "uint256",
					"name": "shares",
					"type": "uint256"
				}
			],
			"name": "previewRedeem",
			"outputs": [
				{
					"internalType": "uint256",
					"name": "",
					"type": "uint256"
				}
			],
			"stateMutability": "view",
			"type": "function"
		},
		{
			"inputs": [
				{
					"internalType": "uint256",
					"name": "assets",
					"type": "uint256"
				}
			],
			"name": "previewWithdraw",
			"outputs": [
				{
					"internalType": "uint256",
					"name": "",
					"type": "uint256"
				}
			],
			"stateMutability": "view",
			"type": "function"
		},
		{
			"inputs": [],
			"name": "proxiableUUID",
			"outputs": [
				{
					"internalType": "bytes32",
					"name": "",
					"type": "bytes32"
				}
			],
			"stateMutability": "view",
			"type": "function"
		},
		{
			"inputs": [
				{
					"internalType": "uint256",
					"name": "shares",
					"type": "uint256"
				},
				{
					"internalType": "address",
					"name": "receiver",
					"type": "address"
				},
				{
					"internalType": "address",
					"name": "owner",
					"type": "address"
				}
			],
			"name": "redeem",
			"outputs": [
				{
					"internalType": "uint256",
					"name": "",
					"type": "uint256"
				}
			],
			"stateMutability": "nonpayable",
			"type": "function"
		},
		{
			"inputs": [],
			"name": "renounceOwnership",
			"outputs": [],
			"stateMutability": "nonpayable",
			"type": "function"
		},
		{
			"inputs": [],
			"name": "symbol",
			"outputs": [
				{
					"internalType": "string",
					"name": "",
					"type": "string"
				}
			],
			"stateMutability": "view",
			"type": "function"
		},
		{
			"inputs": [],
			"name": "totalAssets",
			"outputs": [
				{
					"internalType": "uint256",
					"name": "",
					"type": "uint256"
				}
			],
			"stateMutability": "view",
			"type": "function"
		},
		{
			"inputs": [],
			"name": "totalAssetsBorrowed",
			"outputs": [
				{
					"internalType": "uint256",
					"name": "",
					"type": "uint256"
				}
			],
			"stateMutability": "view",
			"type": "function"
		},
		{
			"inputs": [],
			"name": "totalSupply",
			"outputs": [
				{
					"internalType": "uint256",
					"name": "",
					"type": "uint256"
				}
			],
			"stateMutability": "view",
			"type": "function"
		},
		{
			"inputs": [
				{
					"internalType": "address",
					"name": "to",
					"type": "address"
				},
				{
					"internalType": "uint256",
					"name": "amount",
					"type": "uint256"
				}
			],
			"name": "transfer",
			"outputs": [
				{
					"internalType": "bool",
					"name": "",
					"type": "bool"
				}
			],
			"stateMutability": "nonpayable",
			"type": "function"
		},
		{
			"inputs": [
				{
					"internalType": "address",
					"name": "from",
					"type": "address"
				},
				{
					"internalType": "address",
					"name": "to",
					"type": "address"
				},
				{
					"internalType": "uint256",
					"name": "amount",
					"type": "uint256"
				}
			],
			"name": "transferFrom",
			"outputs": [
				{
					"internalType": "bool",
					"name": "",
					"type": "bool"
				}
			],
			"stateMutability": "nonpayable",
			"type": "function"
		},
		{
			"inputs": [
				{
					"internalType": "address",
					"name": "newOwner",
					"type": "address"
				}
			],
			"name": "transferOwnership",
			"outputs": [],
			"stateMutability": "nonpayable",
			"type": "function"
		},
		{
			"inputs": [
				{
					"internalType": "address",
					"name": "newImplementation",
					"type": "address"
				}
			],
			"name": "upgradeTo",
			"outputs": [],
			"stateMutability": "nonpayable",
			"type": "function"
		},
		{
			"inputs": [
				{
					"internalType": "address",
					"name": "newImplementation",
					"type": "address"
				},
				{
					"internalType": "bytes",
					"name": "data",
					"type": "bytes"
				}
			],
			"name": "upgradeToAndCall",
			"outputs": [],
			"stateMutability": "payable",
			"type": "function"
		},
		{
			"inputs": [],
			"name": "wFIL",
			"outputs": [
				{
					"internalType": "contract IWFIL",
					"name": "",
					"type": "address"
				}
			],
			"stateMutability": "view",
			"type": "function"
		},
		{
			"inputs": [
				{
					"internalType": "uint256",
					"name": "assets",
					"type": "uint256"
				},
				{
					"internalType": "address",
					"name": "receiver",
					"type": "address"
				},
				{
					"internalType": "address",
					"name": "owner",
					"type": "address"
				}
			],
			"name": "withdraw",
			"outputs": [
				{
					"internalType": "uint256",
					"name": "",
					"type": "uint256"
				}
			],
			"stateMutability": "nonpayable",
			"type": "function"
		},
		{
			"inputs": [
				{
					"internalType": "address",
					"name": "_from",
					"type": "address"
				},
				{
					"internalType": "address",
					"name": "_to",
					"type": "address"
				},
				{
					"internalType": "uint256",
					"name": "_amount",
					"type": "uint256"
				}
			],
			"name": "withdraw",
			"outputs": [
				{
					"internalType": "uint256",
					"name": "shares",
					"type": "uint256"
				}
			],
			"stateMutability": "nonpayable",
			"type": "function"
		},
		{
			"stateMutability": "payable",
			"type": "receive"
		}
	],
	"bytecode": "0x60a06040523060805234801561001457600080fd5b5060805161365a61004c60003960008181610983015281816109cc01528181610a7d01528181610abd0152610b39015261365a6000f3fe6080604052600436106102065760003560e01c806301e1d1141461021257806305e044eb1461023d57806306fdde031461026b57806307a2d13a1461028d578063095ea7b3146102ad5780630a28a477146102da57806318160ddd146102fa57806320124bce1461030f57806323b872dd14610324578063242bba6a14610344578063313ce567146103575780633659cfe61461037957806338d52e0f1461039b57806339509351146103c2578063402d267d146103e25780634cdad5061461028d5780634f1ef2861461040257806352d1902d1461041557806365c965c61461042a5780636e553f651461044b57806370a082311461046b578063715018a61461048b5780638da5cb5b146104a05780639382c5e5146104b557806394bf804d146104d657806395d89b41146104f6578063a15a211c1461050b578063a38deecf14610513578063a457c2d71461052a578063a9059cbb1461054a578063b3d7f6b91461056a578063b460af941461058a578063ba087652146105aa578063bef44256146105ca578063c0c53b8b146105eb578063c5ebeaec1461060b578063c63d75b6146103e2578063c6e6f5921461062b578063ce96cb771461064b578063d0e30db01461066b578063d905777e14610673578063d9caed1214610693578063dd62ed3e146106b3578063ef8b30f71461062b578063f2fde38b146106d357600080fd5b3661020d57005b600080fd5b34801561021e57600080fd5b506102276106f3565b60405161023491906123d4565b60405180910390f35b34801561024957600080fd5b506101615461025e906001600160a01b031681565b6040516102349190612423565b34801561027757600080fd5b5061028061077a565b6040516102349190612493565b34801561029957600080fd5b506102276102a83660046124bc565b61080c565b3480156102b957600080fd5b506102cd6102c83660046124fc565b61081f565b6040516102349190612541565b3480156102e657600080fd5b506102276102f53660046124bc565b610837565b34801561030657600080fd5b50603554610227565b34801561031b57600080fd5b50610227610844565b34801561033057600080fd5b506102cd61033f36600461254f565b6108b7565b61022761035236600461259f565b6108dd565b34801561036357600080fd5b5061036c61095f565b60405161023491906125c9565b34801561038557600080fd5b5061039961039436600461259f565b610979565b005b3480156103a757600080fd5b506065546001600160a01b03165b60405161023491906125e0565b3480156103ce57600080fd5b506102cd6103dd3660046124fc565b610a4a565b3480156103ee57600080fd5b506102276103fd36600461259f565b610a6c565b6103996104103660046126e9565b610a73565b34801561042157600080fd5b50610227610b2c565b34801561043657600080fd5b506101605461025e906001600160a01b031681565b34801561045757600080fd5b50610227610466366004612736565b610b8a565b34801561047757600080fd5b5061022761048636600461259f565b610bcd565b34801561049757600080fd5b50610399610be8565b3480156104ac57600080fd5b506103b5610bfc565b3480156104c157600080fd5b506101625461025e906001600160a01b031681565b3480156104e257600080fd5b506102276104f1366004612736565b610c0b565b34801561050257600080fd5b50610280610c4e565b610399610c5d565b34801561051f57600080fd5b506102276101635481565b34801561053657600080fd5b506102cd6105453660046124fc565b610d97565b34801561055657600080fd5b506102cd6105653660046124fc565b610ddf565b34801561057657600080fd5b506102276105853660046124bc565b610ded565b34801561059657600080fd5b506102276105a5366004612769565b610dfa565b3480156105b657600080fd5b506102276105c5366004612769565b610e46565b3480156105d657600080fd5b5061015f5461025e906001600160a01b031681565b3480156105f757600080fd5b506103996106063660046127af565b610e8a565b34801561061757600080fd5b506103996106263660046124bc565b611043565b34801561063757600080fd5b506102276106463660046124bc565b611199565b34801561065757600080fd5b5061022761066636600461259f565b6111a6565b6102276111bb565b34801561067f57600080fd5b5061022761068e36600461259f565b611369565b34801561069f57600080fd5b506102276106ae36600461254f565b611374565b3480156106bf57600080fd5b506102276106ce3660046127d3565b61157b565b3480156106df57600080fd5b506103996106ee36600461259f565b6115a6565b6101635461015f546040516370a0823160e01b8152600092916001600160a01b0316906370a082319061072a9030906004016125e0565b602060405180830381865afa158015610747573d6000803e3d6000fd5b505050506040513d601f19601f8201168201806040525081019061076b9190612800565b6107759190612837565b905090565b60606036805461078990612860565b80601f01602080910402602001604051908101604052809291908181526020018280546107b590612860565b80156108025780601f106107d757610100808354040283529160200191610802565b820191906000526020600020905b8154815290600101906020018083116107e557829003601f168201915b5050505050905090565b60006108198260006115dd565b92915050565b60003361082d818585611617565b5060019392505050565b60006108198260016116cb565b61015f546040516370a0823160e01b81526000916001600160a01b0316906370a08231906108769030906004016125e0565b602060405180830381865afa158015610893573d6000803e3d6000fd5b505050506040513d601f19601f820116820180604052508101906107759190612800565b6000336108c58582856116fb565b6108d085858561173f565b60019150505b9392505050565b60006108e761181d565b346108f181610837565b91506108fd838361184c565b806101636000828254610910919061288c565b90915550610920905083826118f6565b7f4c5603ca8a64bca3d3f9a35df9ace1b68f71f10f299d08f9f108efb09afb44b6838260405161095192919061289f565b60405180910390a150919050565b6000806065546107759190600160a01b900460ff166128ba565b6001600160a01b037f00000000000000000000000000000000000000000000000000000000000000001630036109ca5760405162461bcd60e51b81526004016109c190612911565b60405180910390fd5b7f00000000000000000000000000000000000000000000000000000000000000006001600160a01b03166109fc611921565b6001600160a01b031614610a225760405162461bcd60e51b81526004016109c190612958565b610a2b8161193d565b60408051600080825260208201909252610a4791839190611945565b50565b60003361082d818585610a5d838361157b565b610a679190612837565b611617565b5060001990565b6001600160a01b037f0000000000000000000000000000000000000000000000000000000000000000163003610abb5760405162461bcd60e51b81526004016109c190612911565b7f00000000000000000000000000000000000000000000000000000000000000006001600160a01b0316610aed611921565b6001600160a01b031614610b135760405162461bcd60e51b81526004016109c190612958565b610b1c8261193d565b610b2882826001611945565b5050565b6000306001600160a01b037f00000000000000000000000000000000000000000000000000000000000000001614610b765760405162461bcd60e51b81526004016109c1906129bd565b506000805160206135be8339815191525b90565b6000610b9582610a6c565b831115610bb45760405162461bcd60e51b81526004016109c190612a04565b6000610bbf84611199565b90506108d633848684611a27565b6001600160a01b031660009081526033602052604090205490565b610bf061181d565b610bfa6000611a9c565b565b60c9546001600160a01b031690565b6000610c1682610a6c565b831115610c355760405162461bcd60e51b81526004016109c190612a46565b6000610c4084610ded565b90506108d633848387611a27565b60606037805461078990612860565b610160546040805163fbfa77cf60e01b8152905133926001600160a01b03169163fbfa77cf9160048083019260209291908290030181865afa158015610ca7573d6000803e3d6000fd5b505050506040513d601f19601f82011682018060405250810190610ccb9190612a61565b6001600160a01b031614610cf25760405163c732d64360e01b815260040160405180910390fd5b61015f60009054906101000a90046001600160a01b03166001600160a01b031663d0e30db0346040518263ffffffff1660e01b81526004016000604051808303818588803b158015610d4357600080fd5b505af1158015610d57573d6000803e3d6000fd5b50505050507fe3987e0dbdbf4e59549b9a515a30f3b915efabc9a33f465a6da4db771831efaf3334604051610d8d92919061289f565b60405180910390a1565b60003381610da5828661157b565b905083811015610dc75760405162461bcd60e51b81526004016109c190612ac4565b610dd48286868403611617565b506001949350505050565b60003361082d81858561173f565b60006108198260016115dd565b6000610e05826111a6565b841115610e245760405162461bcd60e51b81526004016109c190612b08565b6000610e2f85610837565b9050610e3e3385858885611aee565b949350505050565b6000610e5182611369565b841115610e705760405162461bcd60e51b81526004016109c190612b4c565b6000610e7b8561080c565b9050610e3e3385858489611aee565b600054610100900460ff1615808015610eaa5750600054600160ff909116105b80610ecb5750610eb930611b91565b158015610ecb575060005460ff166001145b610ee75760405162461bcd60e51b81526004016109c190612ba7565b6000805460ff191660011790558015610f0a576000805461ff0019166101001790555b610f4c604051806040016040528060048152602001631e91925360e21b815250604051806040016040528060048152602001631e91925360e21b815250611ba0565b610f5530611bd1565b610f5d611c01565b610f65611c30565b610f6d611c5f565b61015f80546001600160a01b038087166001600160a01b03199283161790925561016080548684169083161790556101618054928516929091169190911790556000610fc269014542ba12a337c00000611199565b9050610fce3382611c86565b69014542ba12a337c000006101636000828254610feb9190612837565b90915550508115905061103d576000805461ff00191690556040517f7f26b83ff96e1f2b6a682f133852f6798a09c465da95921460cefb38474024989061103490600190612bcc565b60405180910390a15b50505050565b610160546040805163fbfa77cf60e01b8152905133926001600160a01b03169163fbfa77cf9160048083019260209291908290030181865afa15801561108d573d6000803e3d6000fd5b505050506040513d601f19601f820116820180604052508101906110b19190612a61565b6001600160a01b0316146110d85760405163c732d64360e01b815260040160405180910390fd5b8061016360008282546110eb9190612837565b909155505061015f54604051632e1a7d4d60e01b81526001600160a01b0390911690632e1a7d4d906111219084906004016123d4565b600060405180830381600087803b15801561113b57600080fd5b505af115801561114f573d6000803e3d6000fd5b5050505061115d33826118f6565b7fcbc04eca7e9da35cb1393a6135a199ca52e450d5e9251cbd99f7847d33a36750338260405161118e92919061289f565b60405180910390a150565b60006108198260006116cb565b60006108196111b483610bcd565b60006115dd565b60006111c5611d0a565b61016154604051634209fff160e01b81526001600160a01b0390911690634209fff1906111f69033906004016125e0565b602060405180830381865afa158015611213573d6000803e3d6000fd5b505050506040513d601f19601f820116820180604052508101906112379190612bed565b61125657336040516307eddfbf60e01b81526004016109c191906125e0565b3461126033610a6c565b81111561128057604051630cd8567560e21b815260040160405180910390fd5b61128981611199565b9150816000036112ac57604051636646782360e01b815260040160405180910390fd5b336000908152610164602052604080822083905561015f548151630d0e30db60e41b815291516001600160a01b039091169263d0e30db09285926004808301939282900301818588803b15801561130257600080fd5b505af1158015611316573d6000803e3d6000fd5b50505050506113253383611c86565b7fe1fffcc4923d04b559f4d29a8bfc6cda04eb5b0d3c460751c2402c5c5cc9109c338260405161135692919061289f565b60405180910390a150610b876001609755565b600061081982610bcd565b600061137e61181d565b611386611d0a565b61016154604051634209fff160e01b81526001600160a01b0390911690634209fff1906113b79087906004016125e0565b602060405180830381865afa1580156113d4573d6000803e3d6000fd5b505050506040513d601f19601f820116820180604052508101906113f89190612bed565b61141757836040516307eddfbf60e01b81526004016109c191906125e0565b61142082610837565b905061142c848261184c565b61015f546040516370a0823160e01b81526000916001600160a01b0316906370a082319061145e9030906004016125e0565b602060405180830381865afa15801561147b573d6000803e3d6000fd5b505050506040513d601f19601f8201168201806040525081019061149f9190612800565b9050828110156114c25760405163356680b760e01b815260040160405180910390fd5b80156115355761015f54604051632e1a7d4d60e01b81526001600160a01b0390911690632e1a7d4d906114f99086906004016123d4565b600060405180830381600087803b15801561151357600080fd5b505af1158015611527573d6000803e3d6000fd5b5050505061153584846118f6565b7f9b1bfa7fa9ee420a16e124f794c35ac9f90472acc99140eb2f6447c714cad8eb85858560405161156893929190612c0e565b60405180910390a1506108d66001609755565b6001600160a01b03918216600090815260346020908152604080832093909416825291909152205490565b6115ae61181d565b6001600160a01b0381166115d45760405162461bcd60e51b81526004016109c190612c79565b610a4781611a9c565b60006108d66115ea6106f3565b6115f5906001612837565b6116016000600a612d97565b60355461160e9190612837565b85919085611d3a565b6001600160a01b03831661163d5760405162461bcd60e51b81526004016109c190612ded565b6001600160a01b0382166116635760405162461bcd60e51b81526004016109c190612e3c565b6001600160a01b0380841660008181526034602090815260408083209487168084529490915290819020849055517f8c5be1e5ebec7d5bd14f71427d1e84f3dd0314c0f7b2291e5b200ac8c7c3b925906116be9085906123d4565b60405180910390a3505050565b60006108d66116db82600a612d97565b6035546116e89190612837565b6116f06106f3565b61160e906001612837565b6000611707848461157b565b9050600019811461103d57818110156117325760405162461bcd60e51b81526004016109c190612e80565b61103d8484848403611617565b6001600160a01b0383166117655760405162461bcd60e51b81526004016109c190612ed2565b6001600160a01b03821661178b5760405162461bcd60e51b81526004016109c190612f22565b6001600160a01b038316600090815260336020526040902054818110156117c45760405162461bcd60e51b81526004016109c190612f75565b6001600160a01b038085166000818152603360205260408082208686039055928616808252908390208054860190559151600080516020613605833981519152906118109086906123d4565b60405180910390a361103d565b33611826610bfc565b6001600160a01b031614610bfa5760405162461bcd60e51b81526004016109c190612fb7565b6001600160a01b0382166118725760405162461bcd60e51b81526004016109c190613005565b6001600160a01b038216600090815260336020526040902054818110156118ab5760405162461bcd60e51b81526004016109c190613054565b6001600160a01b038316600081815260336020526040808220858503905560358054869003905551909190600080516020613605833981519152906116be9086906123d4565b505050565b600080600080600085875af19050806118f15760405162461bcd60e51b81526004016109c19061308e565b6000805160206135be833981519152546001600160a01b031690565b610a4761181d565b7f4910fdfa16fed3260ed0e7147f7cc6da11a60208b5b9406d12a635614ffd91435460ff1615611978576118f183611d97565b826001600160a01b03166352d1902d6040518163ffffffff1660e01b8152600401602060405180830381865afa9250505080156119d2575060408051601f3d908101601f191682019092526119cf91810190612800565b60015b6119ee5760405162461bcd60e51b81526004016109c1906130e9565b6000805160206135be8339815191528114611a1b5760405162461bcd60e51b81526004016109c19061313f565b506118f1838383611deb565b606554611a3f906001600160a01b0316853085611e10565b611a498382611c86565b826001600160a01b0316846001600160a01b03167fdcbc1c05240f31ff3ad067ef1ee35ce4997762752e3a095284754544f4c709d78484604051611a8e92919061314f565b60405180910390a350505050565b60c980546001600160a01b038381166001600160a01b0319831681179093556040519116919082907f8be0079c531659141344cd1fd0a4f28419497f9722a3daafe3b4186f6b6457e090600090a35050565b826001600160a01b0316856001600160a01b031614611b1257611b128386836116fb565b611b1c838261184c565b606554611b33906001600160a01b03168584611e68565b826001600160a01b0316846001600160a01b0316866001600160a01b03167ffbde797d201c681b91056529119e0b02407c7bb96a4a2c75c01fc9667232c8db8585604051611b8292919061314f565b60405180910390a45050505050565b6001600160a01b03163b151590565b600054610100900460ff16611bc75760405162461bcd60e51b81526004016109c1906131a5565b610b288282611e87565b600054610100900460ff16611bf85760405162461bcd60e51b81526004016109c1906131a5565b610a4781611ec7565b600054610100900460ff16611c285760405162461bcd60e51b81526004016109c1906131a5565b610bfa611f4c565b600054610100900460ff16611c575760405162461bcd60e51b81526004016109c1906131a5565b610bfa611f73565b600054610100900460ff16610bfa5760405162461bcd60e51b81526004016109c1906131a5565b6001600160a01b038216611cac5760405162461bcd60e51b81526004016109c1906131e9565b8060356000828254611cbe9190612837565b90915550506001600160a01b0382166000818152603360205260408082208054850190555160008051602061360583398151915290611cfe9085906123d4565b60405180910390a35050565b600260975403611d2c5760405162461bcd60e51b81526004016109c19061322d565b6002609755565b6001609755565b600080611d48868686611fa3565b90506001836002811115611d5e57611d5e61323d565b148015611d7b575060008480611d7657611d76613253565b868809115b15611d8e57611d8b600182612837565b90505b95945050505050565b611da081611b91565b611dbc5760405162461bcd60e51b81526004016109c1906132b3565b6000805160206135be83398151915280546001600160a01b0319166001600160a01b0392909216919091179055565b611df483612065565b600082511180611e015750805b156118f15761103d83836120a5565b61103d846323b872dd60e01b858585604051602401611e3193929190612c0e565b60408051601f198184030181529190526020810180516001600160e01b03166001600160e01b0319909316929092179091526120ca565b6118f18363a9059cbb60e01b8484604051602401611e3192919061289f565b600054610100900460ff16611eae5760405162461bcd60e51b81526004016109c1906131a5565b6036611eba8382613387565b5060376118f18282613387565b600054610100900460ff16611eee5760405162461bcd60e51b81526004016109c1906131a5565b600080611efa8361215c565b9150915081611f0a576012611f0c565b805b606580546001600160a01b039095166001600160a01b031960ff93909316600160a01b02929092166001600160a81b031990951694909417179092555050565b600054610100900460ff16611d335760405162461bcd60e51b81526004016109c1906131a5565b600054610100900460ff16611f9a5760405162461bcd60e51b81526004016109c1906131a5565b610bfa33611a9c565b6000808060001985870985870292508281108382030391505080600003611fdd57838281611fd357611fd3613253565b04925050506108d6565b808411611ffc5760405162461bcd60e51b81526004016109c190613471565b60008486880960026001871981018816978890046003810283188082028403028082028403028082028403028082028403028082028403029081029092039091026000889003889004909101858311909403939093029303949094049190911702949350505050565b61206e81611d97565b6040516001600160a01b038216907fbc7cd75a20ee27fd9adebab32041f755214dbc6bffa90cc0225b39da2e5c2d3b90600090a250565b60606108d683836040518060600160405280602781526020016135de60279139612238565b600061211f826040518060400160405280602081526020017f5361666545524332303a206c6f772d6c6576656c2063616c6c206661696c6564815250856001600160a01b03166122b09092919063ffffffff16565b90508051600014806121405750808060200190518101906121409190612bed565b6118f15760405162461bcd60e51b81526004016109c1906134c8565b60408051600481526024810182526020810180516001600160e01b031663313ce56760e01b17905290516000918291829182916001600160a01b038716916121a3916134fa565b600060405180830381855afa9150503d80600081146121de576040519150601f19603f3d011682016040523d82523d6000602084013e6121e3565b606091505b50915091508180156121f757506020815110155b1561222b576000818060200190518101906122129190612800565b905060ff8111612229576001969095509350505050565b505b5060009485945092505050565b6060600080856001600160a01b03168560405161225591906134fa565b600060405180830381855af49150503d8060008114612290576040519150601f19603f3d011682016040523d82523d6000602084013e612295565b606091505b50915091506122a6868383876122bf565b9695505050505050565b6060610e3e8484600085612306565b606083156122fc5782516000036122f5576122d985611b91565b6122f55760405162461bcd60e51b81526004016109c19061353a565b5081610e3e565b610e3e83836123a2565b6060824710156123285760405162461bcd60e51b81526004016109c19061358d565b600080866001600160a01b0316858760405161234491906134fa565b60006040518083038185875af1925050503d8060008114612381576040519150601f19603f3d011682016040523d82523d6000602084013e612386565b606091505b5091509150612397878383876122bf565b979650505050505050565b8151156123b25781518083602001fd5b8060405162461bcd60e51b81526004016109c19190612493565b805b82525050565b6020810161081982846123cc565b6001600160a01b031690565b60006108196123ff610b87846123e2565b6123e2565b6000610819826123ee565b600061081982612404565b6123ce8161240f565b60208101610819828461241a565b60005b8381101561244c578181015183820152602001612434565b50506000910152565b601f01601f191690565b6000612469825190565b808452602084019350612480818560208601612431565b61248981612455565b9093019392505050565b602080825281016108d6818461245f565b805b8114610a4757600080fd5b8035610819816124a4565b6000602082840312156124d1576124d1600080fd5b6000610e3e84846124b1565b6000610819826123e2565b6124a6816124dd565b8035610819816124e8565b6000806040838503121561251257612512600080fd5b600061251e85856124f1565b925050602061252f858286016124b1565b9150509250929050565b8015156123ce565b602081016108198284612539565b60008060006060848603121561256757612567600080fd5b600061257386866124f1565b9350506020612584868287016124f1565b9250506040612595868287016124b1565b9150509250925092565b6000602082840312156125b4576125b4600080fd5b6000610e3e84846124f1565b60ff81166123ce565b6020810161081982846125c0565b6123ce816124dd565b6020810161081982846125d7565b634e487b7160e01b600052604160045260246000fd5b61260d82612455565b81018181106001600160401b038211171561262a5761262a6125ee565b6040525050565b600061263c60405190565b90506126488282612604565b919050565b60006001600160401b03821115612666576126666125ee565b61266f82612455565b60200192915050565b82818337506000910152565b60006126976126928461264d565b612631565b9050828152602081018484840111156126b2576126b2600080fd5b6126bd848285612678565b509392505050565b600082601f8301126126d9576126d9600080fd5b8135610e3e848260208601612684565b600080604083850312156126ff576126ff600080fd5b600061270b85856124f1565b92505060208301356001600160401b0381111561272a5761272a600080fd5b61252f858286016126c5565b6000806040838503121561274c5761274c600080fd5b600061275885856124b1565b925050602061252f858286016124f1565b60008060006060848603121561278157612781600080fd5b600061278d86866124b1565b935050602061279e868287016124f1565b9250506040612595868287016124f1565b6000806000606084860312156127c7576127c7600080fd5b600061278d86866124f1565b600080604083850312156127e9576127e9600080fd5b600061275885856124f1565b8051610819816124a4565b60006020828403121561281557612815600080fd5b6000610e3e84846127f5565b634e487b7160e01b600052601160045260246000fd5b8082018082111561081957610819612821565b634e487b7160e01b600052602260045260246000fd5b60028104600182168061287457607f821691505b6020821081036128865761288661284a565b50919050565b8181038181111561081957610819612821565b604081016128ad82856125d7565b6108d660208301846123cc565b60ff91821691908116908282019081111561081957610819612821565b602c815260006020820160008051602061359e83398151915281526b19195b1959d85d1958d85b1b60a21b602082015291505b5060400190565b60208082528101610819816128d7565b602c815260006020820160008051602061359e83398151915281526b6163746976652070726f787960a01b6020820152915061290a565b6020808252810161081981612921565b603881526000602082017f555550535570677261646561626c653a206d757374206e6f742062652063616c8152771b1959081d1a1c9bdd59da0819195b1959d85d1958d85b1b60421b6020820152915061290a565b6020808252810161081981612968565b601e81526000602082017f455243343632363a206465706f736974206d6f7265207468616e206d61780000815291505b5060200190565b60208082528101610819816129cd565b601b81526000602082017a08aa486686c646c7440dad2dce840dadee4ca40e8d0c2dc40dac2f602b1b815291506129fd565b6020808252810161081981612a14565b8051610819816124e8565b600060208284031215612a7657612a76600080fd5b6000610e3e8484612a56565b602581526000602082017f45524332303a2064656372656173656420616c6c6f77616e63652062656c6f77815264207a65726f60d81b6020820152915061290a565b6020808252810161081981612a82565b601f81526000602082017f455243343632363a207769746864726177206d6f7265207468616e206d617800815291506129fd565b6020808252810161081981612ad4565b601d81526000602082017f455243343632363a2072656465656d206d6f7265207468616e206d6178000000815291506129fd565b6020808252810161081981612b18565b602e81526000602082017f496e697469616c697a61626c653a20636f6e747261637420697320616c72656181526d191e481a5b9a5d1a585b1a5e995960921b6020820152915061290a565b6020808252810161081981612b5c565b60ff1690565b6123ce81600061081982612bb7565b602081016108198284612bbd565b8015156124a6565b805161081981612bda565b600060208284031215612c0257612c02600080fd5b6000610e3e8484612be2565b60608101612c1c82866125d7565b612c2960208301856125d7565b610e3e60408301846123cc565b602681526000602082017f4f776e61626c653a206e6577206f776e657220697320746865207a65726f206181526564647265737360d01b6020820152915061290a565b6020808252810161081981612c36565b80825b6001851115612cc857808604811115612ca757612ca7612821565b6001851615612cb557908102905b8002612cc18560011c90565b9450612c8c565b94509492505050565b600082612ce0575060016108d6565b81612ced575060006108d6565b8160018114612d035760028114612d0d57612d3a565b60019150506108d6565b60ff841115612d1e57612d1e612821565b8360020a915084821115612d3457612d34612821565b506108d6565b5060208310610133831016604e8410600b8410161715612d6d575081810a83811115612d6857612d68612821565b6108d6565b612d7a8484846001612c89565b92509050818404811115612d9057612d90612821565b0292915050565b600060ff831692506108d66000198484612cd1565b602481526000602082017f45524332303a20617070726f76652066726f6d20746865207a65726f206164648152637265737360e01b6020820152915061290a565b6020808252810161081981612dac565b602281526000602082017f45524332303a20617070726f766520746f20746865207a65726f206164647265815261737360f01b6020820152915061290a565b6020808252810161081981612dfd565b601d81526000602082017f45524332303a20696e73756666696369656e7420616c6c6f77616e6365000000815291506129fd565b6020808252810161081981612e4c565b602581526000602082017f45524332303a207472616e736665722066726f6d20746865207a65726f206164815264647265737360d81b6020820152915061290a565b6020808252810161081981612e90565b602381526000602082017f45524332303a207472616e7366657220746f20746865207a65726f206164647281526265737360e81b6020820152915061290a565b6020808252810161081981612ee2565b602681526000602082017f45524332303a207472616e7366657220616d6f756e7420657863656564732062815265616c616e636560d01b6020820152915061290a565b6020808252810161081981612f32565b60208082527f4f776e61626c653a2063616c6c6572206973206e6f7420746865206f776e6572910190815260006129fd565b6020808252810161081981612f85565b602181526000602082017f45524332303a206275726e2066726f6d20746865207a65726f206164647265738152607360f81b6020820152915061290a565b6020808252810161081981612fc7565b602281526000602082017f45524332303a206275726e20616d6f756e7420657863656564732062616c616e815261636560f01b6020820152915061290a565b6020808252810161081981613015565b601381526000602082017211551217d514905394d1915497d19052531151606a1b815291506129fd565b6020808252810161081981613064565b602e81526000602082017f45524331393637557067726164653a206e657720696d706c656d656e7461746981526d6f6e206973206e6f74205555505360901b6020820152915061290a565b602080825281016108198161309e565b602981526000602082017f45524331393637557067726164653a20756e737570706f727465642070726f788152681a58589b195555525160ba1b6020820152915061290a565b60208082528101610819816130f9565b604081016128ad82856123cc565b602b81526000602082017f496e697469616c697a61626c653a20636f6e7472616374206973206e6f74206981526a6e697469616c697a696e6760a81b6020820152915061290a565b602080825281016108198161315d565b601f81526000602082017f45524332303a206d696e7420746f20746865207a65726f206164647265737300815291506129fd565b60208082528101610819816131b5565b601f81526000602082017f5265656e7472616e637947756172643a207265656e7472616e742063616c6c00815291506129fd565b60208082528101610819816131f9565b634e487b7160e01b600052602160045260246000fd5b634e487b7160e01b600052601260045260246000fd5b602d81526000602082017f455243313936373a206e657720696d706c656d656e746174696f6e206973206e81526c1bdd08184818dbdb9d1c9858dd609a1b6020820152915061290a565b6020808252810161081981613269565b6000610819610b878381565b6132d8836132c3565b815460001960089490940293841b1916921b91909117905550565b60006118f18184846132cf565b81811015610b28576133136000826132f3565b600101613300565b601f8211156118f1576000818152602090206020601f850104810160208510156133425750805b6133546020601f860104830182613300565b5050505050565b6000196008929092029190911c191690565b6000613379838361335b565b600290930290921792915050565b81516001600160401b038111156133a0576133a06125ee565b6133aa8254612860565b6133b582828561331b565b6020601f8311600181146133e357600084156133d15750858201515b6133db858261336d565b86555061343d565b600085815260208120601f198616915b8281101561341357888501518255602094850194600190920191016133f3565b86831015613430578489015161342c601f89168261335b565b8355505b6001600288020188555050505b505050505050565b60158152600060208201744d6174683a206d756c446976206f766572666c6f7760581b815291506129fd565b6020808252810161081981613445565b602a81526000602082017f5361666545524332303a204552433230206f7065726174696f6e20646964206e8152691bdd081cdd58d8d9595960b21b6020820152915061290a565b6020808252810161081981613481565b60006134e2825190565b6134f0818560208601612431565b9290920192915050565b60006108d682846134d8565b601d81526000602082017f416464726573733a2063616c6c20746f206e6f6e2d636f6e7472616374000000815291506129fd565b6020808252810161081981613506565b602681526000602082017f416464726573733a20696e73756666696369656e742062616c616e636520666f8152651c8818d85b1b60d21b6020820152915061290a565b602080825281016108198161354a56fe46756e6374696f6e206d7573742062652063616c6c6564207468726f75676820360894a13ba1a3210667c828492db98dca3e2076cc3735a920a3ca505d382bbc416464726573733a206c6f772d6c6576656c2064656c65676174652063616c6c206661696c6564ddf252ad1be2c89b69c2b068fc378daa952ba7f163c4a11628f55a4df523b3efa2646970667358221220f27b37168331f456293521a302f667f323d4a9db4acae10a52bb1c336e61830864736f6c63430008140033",
	"linkReferences": {},
	"deployedLinkReferences": {}
}