{
	"_format": "hh-sol-artifact-1",
	"contractName": "SPVaultV0",
	"sourceName": "contracts/sp/SPVaultV0.sol",
	"abi": [
		{
			"inputs": [],
			"name": "ActorNotFound",
			"type": "error"
		},
		{
			"inputs": [],
			"name": "FailToCallActor",
			"type": "error"
		},
		{
			"inputs": [],
			"name": "IncorrectWithdrawal",
			"type": "error"
		},
		{
			"inputs": [
				{
					"internalType": "uint64",
					"name": "",
					"type": "uint64"
				}
			],
			"name": "InvalidCodec",
			"type": "error"
		},
		{
			"inputs": [],
			"name": "InvalidResponseLength",
			"type": "error"
		},
		{
			"inputs": [
				{
					"internalType": "uint256",
					"name": "balance",
					"type": "uint256"
				},
				{
					"internalType": "uint256",
					"name": "value",
					"type": "uint256"
				}
			],
			"name": "NotEnoughBalance",
			"type": "error"
		},
		{
			"anonymous": false,
			"inputs": [
				{
					"indexed": false,
					"internalType": "address",
					"name": "previousAdmin",
					"type": "address"
				},
				{
					"indexed": false,
					"internalType": "address",
					"name": "newAdmin",
					"type": "address"
				}
			],
			"name": "AdminChanged",
			"type": "event"
		},
		{
			"anonymous": false,
			"inputs": [
				{
					"indexed": true,
					"internalType": "address",
					"name": "beacon",
					"type": "address"
				}
			],
			"name": "BeaconUpgraded",
			"type": "event"
		},
		{
			"anonymous": false,
			"inputs": [
				{
					"indexed": false,
					"internalType": "uint8",
					"name": "version",
					"type": "uint8"
				}
			],
			"name": "Initialized",
			"type": "event"
		},
		{
			"anonymous": false,
			"inputs": [
				{
					"indexed": true,
					"internalType": "address",
					"name": "previousOwner",
					"type": "address"
				},
				{
					"indexed": true,
					"internalType": "address",
					"name": "newOwner",
					"type": "address"
				}
			],
			"name": "OwnershipTransferred",
			"type": "event"
		},
		{
			"anonymous": false,
			"inputs": [
				{
					"indexed": false,
					"internalType": "uint64",
					"name": "minerId",
					"type": "uint64"
				},
				{
					"indexed": false,
					"internalType": "uint256",
					"name": "amount",
					"type": "uint256"
				}
			],
			"name": "PushFund",
			"type": "event"
		},
		{
			"anonymous": false,
			"inputs": [
				{
					"indexed": true,
					"internalType": "address",
					"name": "implementation",
					"type": "address"
				}
			],
			"name": "Upgraded",
			"type": "event"
		},
		{
			"inputs": [],
			"name": "FilmountainRegistry",
			"outputs": [
				{
					"internalType": "contract IFilmountainRegistry",
					"name": "",
					"type": "address"
				}
			],
			"stateMutability": "view",
			"type": "function"
		},
		{
			"inputs": [
				{
					"internalType": "address",
					"name": "_glif",
					"type": "address"
				},
				{
					"internalType": "address",
					"name": "_owner",
					"type": "address"
				}
			],
			"name": "addMiner",
			"outputs": [],
			"stateMutability": "nonpayable",
			"type": "function"
		},
		{
			"inputs": [
				{
					"internalType": "uint256",
					"name": "_amount",
					"type": "uint256"
				}
			],
			"name": "borrow",
			"outputs": [],
			"stateMutability": "nonpayable",
			"type": "function"
		},
		{
			"inputs": [
				{
					"internalType": "address",
					"name": "_wFIL",
					"type": "address"
				},
				{
					"internalType": "address",
					"name": "_registry",
					"type": "address"
				}
			],
			"name": "initialize",
			"outputs": [],
			"stateMutability": "nonpayable",
			"type": "function"
		},
		{
			"inputs": [],
			"name": "owner",
			"outputs": [
				{
					"internalType": "address",
					"name": "",
					"type": "address"
				}
			],
			"stateMutability": "view",
			"type": "function"
		},
		{
			"inputs": [
				{
					"internalType": "uint256",
					"name": "_amount",
					"type": "uint256"
				}
			],
			"name": "payInterest",
			"outputs": [],
			"stateMutability": "nonpayable",
			"type": "function"
		},
		{
			"inputs": [],
			"name": "proxiableUUID",
			"outputs": [
				{
					"internalType": "bytes32",
					"name": "",
					"type": "bytes32"
				}
			],
			"stateMutability": "view",
			"type": "function"
		},
		{
			"inputs": [
				{
					"internalType": "uint64",
					"name": "_minerId",
					"type": "uint64"
				},
				{
					"internalType": "uint256",
					"name": "_amount",
					"type": "uint256"
				}
			],
			"name": "pushFund",
			"outputs": [],
			"stateMutability": "nonpayable",
			"type": "function"
		},
		{
			"inputs": [
				{
					"internalType": "address",
					"name": "_glif",
					"type": "address"
				}
			],
			"name": "removeMiner",
			"outputs": [],
			"stateMutability": "nonpayable",
			"type": "function"
		},
		{
			"inputs": [],
			"name": "renounceOwnership",
			"outputs": [],
			"stateMutability": "nonpayable",
			"type": "function"
		},
		{
			"inputs": [
				{
					"internalType": "address",
					"name": "_glif",
					"type": "address"
				},
				{
					"internalType": "address",
					"name": "_owner",
					"type": "address"
				}
			],
			"name": "setMiner",
			"outputs": [],
			"stateMutability": "nonpayable",
			"type": "function"
		},
		{
			"inputs": [
				{
					"internalType": "address",
					"name": "newOwner",
					"type": "address"
				}
			],
			"name": "transferOwnership",
			"outputs": [],
			"stateMutability": "nonpayable",
			"type": "function"
		},
		{
			"inputs": [
				{
					"internalType": "address",
					"name": "newImplementation",
					"type": "address"
				}
			],
			"name": "upgradeTo",
			"outputs": [],
			"stateMutability": "nonpayable",
			"type": "function"
		},
		{
			"inputs": [
				{
					"internalType": "address",
					"name": "newImplementation",
					"type": "address"
				},
				{
					"internalType": "bytes",
					"name": "data",
					"type": "bytes"
				}
			],
			"name": "upgradeToAndCall",
			"outputs": [],
			"stateMutability": "payable",
			"type": "function"
		},
		{
			"inputs": [],
			"name": "wFIL",
			"outputs": [
				{
					"internalType": "contract IWFIL",
					"name": "",
					"type": "address"
				}
			],
			"stateMutability": "view",
			"type": "function"
		},
		{
			"stateMutability": "payable",
			"type": "receive"
		}
	],
	"bytecode": "0x60a06040523060805234801561001457600080fd5b50608051611b5d61004c60003960008181610688015281816106c80152818161085201528181610892015261090e0152611b5d6000f3fe6080604052600436106100bc5760003560e01c80630200115a1461023f578063102425901461025f578063177160ad1461027f5780633659cfe6146102b5578063485cc955146102d55780634f1ef286146102f557806352d1902d14610308578063715018a61461032a5780638da5cb5b1461033f578063ad452d7514610361578063bef4425614610381578063c5ebeaec146103a1578063ca51c4f0146103c1578063e123d5c1146103c1578063f2fde38b146103e157600080fd5b3661023a5733600090815260cb60205260409020546001600160a01b03161561023857600060646100ee34603c61111f565b6100f89190611154565b90506000606461010934602861111f565b6101139190611154565b90506000606461012484605061111f565b61012e9190611154565b90506000606461013f85601461111f565b6101499190611154565b90506000606461015a85600261111f565b6101649190611154565b90506000606461017586606261111f565b61017f9190611154565b9050600061018d8385611168565b905061019882610401565b33600090815260cb60205260409020546101bb906001600160a01b0316866104ce565b60c95460408051635e8b019160e11b81529051610230926001600160a01b03169163bd1603229160048083019260209291908290030181865afa158015610206573d6000803e3d6000fd5b505050506040513d601f19601f8201168201806040525081019061022a91906111b1565b826104ce565b505050505050505b005b600080fd5b34801561024b57600080fd5b5061023861025a3660046111fd565b610507565b34801561026b57600080fd5b5061023861027a366004611245565b61064f565b34801561028b57600080fd5b5060c95461029f906001600160a01b031681565b6040516102ac91906112a4565b60405180910390f35b3480156102c157600080fd5b506102386102d0366004611245565b61067e565b3480156102e157600080fd5b506102386102f03660046112b2565b610746565b6102386103033660046113ea565b610848565b34801561031457600080fd5b5061031d610901565b6040516102ac919061143d565b34801561033657600080fd5b5061023861095e565b34801561034b57600080fd5b50610354610972565b6040516102ac9190611454565b34801561036d57600080fd5b5061023861037c366004611462565b610401565b34801561038d57600080fd5b5060ca5461029f906001600160a01b031681565b3480156103ad57600080fd5b506102386103bc366004611462565b610981565b3480156103cd57600080fd5b506102386103dc3660046112b2565b610a60565b3480156103ed57600080fd5b506102386103fc366004611245565b610a96565b60c960009054906101000a90046001600160a01b03166001600160a01b03166316f0115b6040518163ffffffff1660e01b8152600401602060405180830381865afa158015610454573d6000803e3d6000fd5b505050506040513d601f19601f8201168201806040525081019061047891906111b1565b6001600160a01b031663a15a211c826040518263ffffffff1660e01b81526004016000604051808303818588803b1580156104b257600080fd5b505af11580156104c6573d6000803e3d6000fd5b505050505050565b600080600080600085875af19050806105025760405162461bcd60e51b81526004016104f9906114b0565b60405180910390fd5b505050565b61050f610acd565b60ca546040516370a0823160e01b81526000916001600160a01b0316906370a0823190610540903090600401611454565b602060405180830381865afa15801561055d573d6000803e3d6000fd5b505050506040513d601f19601f8201168201806040525081019061058191906114cb565b9050808211156105a45760405163b4b1515760e01b815260040160405180910390fd5b60ca54604051632e1a7d4d60e01b81526001600160a01b0390911690632e1a7d4d906105d490859060040161143d565b600060405180830381600087803b1580156105ee57600080fd5b505af1158015610602573d6000803e3d6000fd5b505050506106108383610afc565b507ff50f16c2772bd0abb92c3623c9c7ae7a664cbdbdc340e1e75e1deb323fda84f483836040516106429291906114fb565b60405180910390a1505050565b610657610acd565b6001600160a01b0316600090815260cb6020526040902080546001600160a01b0319169055565b6001600160a01b037f00000000000000000000000000000000000000000000000000000000000000001630036106c65760405162461bcd60e51b81526004016104f990611550565b7f00000000000000000000000000000000000000000000000000000000000000006001600160a01b03166106f8610b52565b6001600160a01b03161461071e5760405162461bcd60e51b81526004016104f990611597565b61072781610b6e565b6040805160008082526020820190925261074391839190610b76565b50565b600054610100900460ff16158080156107665750600054600160ff909116105b80610787575061077530610c58565b158015610787575060005460ff166001145b6107a35760405162461bcd60e51b81526004016104f9906115f2565b6000805460ff1916600117905580156107c6576000805461ff0019166101001790555b6107ce610c67565b6107d6610c96565b60ca80546001600160a01b038086166001600160a01b03199283161790925560c98054928516929091169190911790558015610502576000805461ff00191690556040517f7f26b83ff96e1f2b6a682f133852f6798a09c465da95921460cefb38474024989061064290600190611616565b6001600160a01b037f00000000000000000000000000000000000000000000000000000000000000001630036108905760405162461bcd60e51b81526004016104f990611550565b7f00000000000000000000000000000000000000000000000000000000000000006001600160a01b03166108c2610b52565b6001600160a01b0316146108e85760405162461bcd60e51b81526004016104f990611597565b6108f182610b6e565b6108fd82826001610b76565b5050565b6000306001600160a01b037f0000000000000000000000000000000000000000000000000000000000000000161461094b5760405162461bcd60e51b81526004016104f990611679565b50600080516020611ae183398151915290565b610966610acd565b6109706000610cbd565b565b6033546001600160a01b031690565b610989610acd565b60c960009054906101000a90046001600160a01b03166001600160a01b03166316f0115b6040518163ffffffff1660e01b8152600401602060405180830381865afa1580156109dc573d6000803e3d6000fd5b505050506040513d601f19601f82011682018060405250810190610a0091906111b1565b6001600160a01b031663c5ebeaec826040518263ffffffff1660e01b8152600401610a2b919061143d565b600060405180830381600087803b158015610a4557600080fd5b505af1158015610a59573d6000803e3d6000fd5b5050505050565b610a68610acd565b6001600160a01b03918216600090815260cb6020526040902080546001600160a01b03191691909216179055565b610a9e610acd565b6001600160a01b038116610ac45760405162461bcd60e51b81526004016104f9906116cc565b61074381610cbd565b33610ad6610972565b6001600160a01b0316146109705760405162461bcd60e51b81526004016104f99061170e565b6040805160008082526020820190925281908190610b2290869083908190886000610d0f565b915091508051600014610b4857604051630e74990760e01b815260040160405180910390fd5b5090505b92915050565b600080516020611ae1833981519152546001600160a01b031690565b610743610acd565b7f4910fdfa16fed3260ed0e7147f7cc6da11a60208b5b9406d12a635614ffd91435460ff1615610ba95761050283610def565b826001600160a01b03166352d1902d6040518163ffffffff1660e01b8152600401602060405180830381865afa925050508015610c03575060408051601f3d908101601f19168201909252610c00918101906114cb565b60015b610c1f5760405162461bcd60e51b81526004016104f990611769565b600080516020611ae18339815191528114610c4c5760405162461bcd60e51b81526004016104f9906117bf565b50610502838383610e43565b6001600160a01b03163b151590565b600054610100900460ff16610c8e5760405162461bcd60e51b81526004016104f990611817565b610970610e6e565b600054610100900460ff166109705760405162461bcd60e51b81526004016104f990611817565b603380546001600160a01b038381166001600160a01b0319831681179093556040519116919082907f8be0079c531659141344cd1fd0a4f28419497f9722a3daafe3b4186f6b6457e090600090a35050565b60006060610d246005607f60991b0185610e9e565b6000806005607f60991b01898787610d3d576000610d40565b60015b8b8b8f604051602001610d5896959493929190611899565b60408051601f1981840301815290829052610d729161191c565b600060405180830381855af49150503d8060008114610dad576040519150601f19603f3d011682016040523d82523d6000602084013e610db2565b606091505b509150915081610dd557604051638a7db5bf60e01b815260040160405180910390fd5b610dde81610ee6565b935093505050965096945050505050565b610df881610c58565b610e145760405162461bcd60e51b81526004016104f990611972565b600080516020611ae183398151915280546001600160a01b0319166001600160a01b0392909216919091179055565b610e4c83610fac565b600082511180610e595750805b1561050257610e688383610fec565b50505050565b600054610100900460ff16610e955760405162461bcd60e51b81526004016104f990611817565b61097033610cbd565b4781811015610ec4578082604051634787a10360e11b81526004016104f9929190611982565b823f151580610e685760405163064d954b60e41b815260040160405180910390fd5b60006060600080600085806020019051810190610f0391906119f3565b919450925090506001600160401b038216610f3d57805115610f3857604051630e74990760e01b815260040160405180910390fd5b610fa0565b6001600160401b03821660511480610f5e57506001600160401b0382166071145b15610f85578051600003610f3857604051630e74990760e01b815260040160405180910390fd5b8160405163f1f6bced60e01b81526004016104f99190611a5d565b91959194509092505050565b610fb581610def565b6040516001600160a01b038216907fbc7cd75a20ee27fd9adebab32041f755214dbc6bffa90cc0225b39da2e5c2d3b90600090a250565b60606110118383604051806060016040528060278152602001611b0160279139611018565b9392505050565b6060600080856001600160a01b031685604051611035919061191c565b600060405180830381855af49150503d8060008114611070576040519150601f19603f3d011682016040523d82523d6000602084013e611075565b606091505b509150915061108686838387611090565b9695505050505050565b606083156110cd5782516000036110c6576110aa85610c58565b6110c65760405162461bcd60e51b81526004016104f990611a9f565b50816110d7565b6110d783836110df565b949350505050565b8151156110ef5781518083602001fd5b8060405162461bcd60e51b81526004016104f99190611aaf565b634e487b7160e01b600052601160045260246000fd5b81810280821583820485141761113757611137611109565b5092915050565b634e487b7160e01b600052601260045260246000fd5b6000826111635761116361113e565b500490565b80820180821115610b4c57610b4c611109565b6001600160a01b031690565b6000610b4c8261117b565b61119b81611187565b811461074357600080fd5b8051610b4c81611192565b6000602082840312156111c6576111c6600080fd5b60006110d784846111a6565b6001600160401b03811661119b565b8035610b4c816111d2565b8061119b565b8035610b4c816111ec565b6000806040838503121561121357611213600080fd5b600061121f85856111e1565b9250506020611230858286016111f2565b9150509250929050565b8035610b4c81611192565b60006020828403121561125a5761125a600080fd5b60006110d7848461123a565b6000610b4c61127a6112778461117b565b90565b61117b565b6000610b4c82611266565b6000610b4c8261127f565b61129e8161128a565b82525050565b60208101610b4c8284611295565b600080604083850312156112c8576112c8600080fd5b60006112d4858561123a565b92505060206112308582860161123a565b601f01601f191690565b634e487b7160e01b600052604160045260246000fd5b61130e826112e5565b81018181106001600160401b038211171561132b5761132b6112ef565b6040525050565b600061133d60405190565b90506113498282611305565b919050565b60006001600160401b03821115611367576113676112ef565b611370826112e5565b60200192915050565b82818337506000910152565b60006113986113938461134e565b611332565b9050828152602081018484840111156113b3576113b3600080fd5b6113be848285611379565b509392505050565b600082601f8301126113da576113da600080fd5b81356110d7848260208601611385565b6000806040838503121561140057611400600080fd5b600061140c858561123a565b92505060208301356001600160401b0381111561142b5761142b600080fd5b611230858286016113c6565b8061129e565b60208101610b4c8284611437565b61129e81611187565b60208101610b4c828461144b565b60006020828403121561147757611477600080fd5b60006110d784846111f2565b601381526000602082017211551217d514905394d1915497d19052531151606a1b815291505b5060200190565b60208082528101610b4c81611483565b8051610b4c816111ec565b6000602082840312156114e0576114e0600080fd5b60006110d784846114c0565b6001600160401b03811661129e565b6040810161150982856114ec565b6110116020830184611437565b602c8152600060208201600080516020611ac183398151915281526b19195b1959d85d1958d85b1b60a21b602082015291505b5060400190565b60208082528101610b4c81611516565b602c8152600060208201600080516020611ac183398151915281526b6163746976652070726f787960a01b60208201529150611549565b60208082528101610b4c81611560565b602e81526000602082017f496e697469616c697a61626c653a20636f6e747261637420697320616c72656181526d191e481a5b9a5d1a585b1a5e995960921b60208201529150611549565b60208082528101610b4c816115a7565b600060ff8216610b4c565b61129e81611602565b60208101610b4c828461160d565b603881526000602082017f555550535570677261646561626c653a206d757374206e6f742062652063616c8152771b1959081d1a1c9bdd59da0819195b1959d85d1958d85b1b60421b60208201529150611549565b60208082528101610b4c81611624565b602681526000602082017f4f776e61626c653a206e6577206f776e657220697320746865207a65726f206181526564647265737360d01b60208201529150611549565b60208082528101610b4c81611689565b60208082527f4f776e61626c653a2063616c6c6572206973206e6f7420746865206f776e6572910190815260006114a9565b60208082528101610b4c816116dc565b602e81526000602082017f45524331393637557067726164653a206e657720696d706c656d656e7461746981526d6f6e206973206e6f74205555505360901b60208201529150611549565b60208082528101610b4c8161171e565b602981526000602082017f45524331393637557067726164653a20756e737570706f727465642070726f788152681a58589b195555525160ba1b60208201529150611549565b60208082528101610b4c81611779565b602b81526000602082017f496e697469616c697a61626c653a20636f6e7472616374206973206e6f74206981526a6e697469616c697a696e6760a81b60208201529150611549565b60208082528101610b4c816117cf565b60005b8381101561184257818101518382015260200161182a565b50506000910152565b6000611855825190565b80845260208401935061186c818560208601611827565b611875816112e5565b9093019392505050565b60006001600160401b038216610b4c565b61129e8161187f565b60c081016118a782896114ec565b6118b46020830188611437565b6118c160408301876114ec565b6118ce60608301866114ec565b81810360808301526118e0818561184b565b90506118ef60a0830184611890565b979650505050505050565b6000611904825190565b611912818560208601611827565b9290920192915050565b600061101182846118fa565b602d81526000602082017f455243313936373a206e657720696d706c656d656e746174696f6e206973206e81526c1bdd08184818dbdb9d1c9858dd609a1b60208201529150611549565b60208082528101610b4c81611928565b604081016115098285611437565b8051610b4c816111d2565b60006119a96113938461134e565b9050828152602081018484840111156119c4576119c4600080fd5b6113be848285611827565b600082601f8301126119e3576119e3600080fd5b81516110d784826020860161199b565b600080600060608486031215611a0b57611a0b600080fd5b6000611a1786866114c0565b9350506020611a2886828701611990565b92505060408401516001600160401b03811115611a4757611a47600080fd5b611a53868287016119cf565b9150509250925092565b60208101610b4c82846114ec565b601d81526000602082017f416464726573733a2063616c6c20746f206e6f6e2d636f6e7472616374000000815291506114a9565b60208082528101610b4c81611a6b565b60208082528101611011818461184b56fe46756e6374696f6e206d7573742062652063616c6c6564207468726f75676820360894a13ba1a3210667c828492db98dca3e2076cc3735a920a3ca505d382bbc416464726573733a206c6f772d6c6576656c2064656c65676174652063616c6c206661696c6564a2646970667358221220a8218406a0274aab6d4ea1ce73aea43d110c76a20fed2a7ea6c07fd08fa8a79d64736f6c63430008120033",
	"linkReferences": {},
	"deployedLinkReferences": {}
}